{"abi":[{"anonymous":false,"inputs":[{"indexed":true,"internalType":"address","name":"owner","type":"address"},{"indexed":true,"internalType":"address","name":"recipient","type":"address"},{"indexed":false,"internalType":"address","name":"contractAddress","type":"address"}],"name":"ContractDeployed","type":"event"},{"inputs":[{"internalType":"address","name":"_recipient","type":"address"}],"name":"createWillContract","outputs":[{"internalType":"address","name":"","type":"address"}],"stateMutability":"nonpayable","type":"function"},{"inputs":[{"internalType":"uint256","name":"","type":"uint256"}],"name":"deployedContracts","outputs":[{"internalType":"address","name":"","type":"address"}],"stateMutability":"view","type":"function"},{"inputs":[],"name":"getTotalDeployedContracts","outputs":[{"internalType":"uint256","name":"","type":"uint256"}],"stateMutability":"view","type":"function"},{"inputs":[{"internalType":"address","name":"_user","type":"address"}],"name":"getUserContracts","outputs":[{"internalType":"address[]","name":"","type":"address[]"}],"stateMutability":"view","type":"function"},{"inputs":[{"internalType":"address","name":"","type":"address"},{"internalType":"uint256","name":"","type":"uint256"}],"name":"userContracts","outputs":[{"internalType":"address","name":"","type":"address"}],"stateMutability":"view","type":"function"}],"devdoc":{"kind":"dev","methods":{},"version":1},"evm":{"assembly":"    /* \"WillContract.sol\":59:1036  contract WillContractFactory {... */\n  mstore(0x40, 0x80)\n  callvalue\n  dup1\n  iszero\n  tag_1\n  jumpi\n  revert(0x00, 0x00)\ntag_1:\n  pop\n  dataSize(sub_0)\n  dup1\n  dataOffset(sub_0)\n  0x00\n  codecopy\n  0x00\n  return\nstop\n\nsub_0: assembly {\n        /* \"WillContract.sol\":59:1036  contract WillContractFactory {... */\n      mstore(0x40, 0x80)\n      callvalue\n      dup1\n      iszero\n      tag_1\n      jumpi\n      revert(0x00, 0x00)\n    tag_1:\n      pop\n      jumpi(tag_2, lt(calldatasize, 0x04))\n      shr(0xe0, calldataload(0x00))\n      dup1\n      0x34c925f0\n      eq\n      tag_3\n      jumpi\n      dup1\n      0x9ad1ee10\n      eq\n      tag_4\n      jumpi\n      dup1\n      0xb0199c18\n      eq\n      tag_5\n      jumpi\n      dup1\n      0xb789003d\n      eq\n      tag_6\n      jumpi\n      dup1\n      0xfaf6b3b3\n      eq\n      tag_7\n      jumpi\n    tag_2:\n      revert(0x00, 0x00)\n        /* \"WillContract.sol\":785:911  function getUserContracts(address _user) external view returns (address[] memory) {... */\n    tag_3:\n      tag_8\n      0x04\n      dup1\n      calldatasize\n      sub\n      dup2\n      add\n      swap1\n      tag_9\n      swap2\n      swap1\n      tag_10\n      jump\t// in\n    tag_9:\n      tag_11\n      jump\t// in\n    tag_8:\n      mload(0x40)\n      tag_12\n      swap2\n      swap1\n      tag_13\n      jump\t// in\n    tag_12:\n      mload(0x40)\n      dup1\n      swap2\n      sub\n      swap1\n      return\n        /* \"WillContract.sol\":94:128  address[] public deployedContracts */\n    tag_4:\n      tag_14\n      0x04\n      dup1\n      calldatasize\n      sub\n      dup2\n      add\n      swap1\n      tag_15\n      swap2\n      swap1\n      tag_16\n      jump\t// in\n    tag_15:\n      tag_17\n      jump\t// in\n    tag_14:\n      mload(0x40)\n      tag_18\n      swap2\n      swap1\n      tag_19\n      jump\t// in\n    tag_18:\n      mload(0x40)\n      dup1\n      swap2\n      sub\n      swap1\n      return\n        /* \"WillContract.sol\":917:1034  function getTotalDeployedContracts() external view returns (uint256) {... */\n    tag_5:\n      tag_20\n      tag_21\n      jump\t// in\n    tag_20:\n      mload(0x40)\n      tag_22\n      swap2\n      swap1\n      tag_23\n      jump\t// in\n    tag_22:\n      mload(0x40)\n      dup1\n      swap2\n      sub\n      swap1\n      return\n        /* \"WillContract.sol\":134:184  mapping(address => address[]) public userContracts */\n    tag_6:\n      tag_24\n      0x04\n      dup1\n      calldatasize\n      sub\n      dup2\n      add\n      swap1\n      tag_25\n      swap2\n      swap1\n      tag_26\n      jump\t// in\n    tag_25:\n      tag_27\n      jump\t// in\n    tag_24:\n      mload(0x40)\n      tag_28\n      swap2\n      swap1\n      tag_19\n      jump\t// in\n    tag_28:\n      mload(0x40)\n      dup1\n      swap2\n      sub\n      swap1\n      return\n        /* \"WillContract.sol\":327:779  function createWillContract(address _recipient) external returns (address) {... */\n    tag_7:\n      tag_29\n      0x04\n      dup1\n      calldatasize\n      sub\n      dup2\n      add\n      swap1\n      tag_30\n      swap2\n      swap1\n      tag_10\n      jump\t// in\n    tag_30:\n      tag_31\n      jump\t// in\n    tag_29:\n      mload(0x40)\n      tag_32\n      swap2\n      swap1\n      tag_19\n      jump\t// in\n    tag_32:\n      mload(0x40)\n      dup1\n      swap2\n      sub\n      swap1\n      return\n        /* \"WillContract.sol\":785:911  function getUserContracts(address _user) external view returns (address[] memory) {... */\n    tag_11:\n        /* \"WillContract.sol\":849:865  address[] memory */\n      0x60\n        /* \"WillContract.sol\":884:897  userContracts */\n      0x01\n        /* \"WillContract.sol\":884:904  userContracts[_user] */\n      0x00\n        /* \"WillContract.sol\":898:903  _user */\n      dup4\n        /* \"WillContract.sol\":884:904  userContracts[_user] */\n      0xffffffffffffffffffffffffffffffffffffffff\n      and\n      0xffffffffffffffffffffffffffffffffffffffff\n      and\n      dup2\n      mstore\n      0x20\n      add\n      swap1\n      dup2\n      mstore\n      0x20\n      add\n      0x00\n      keccak256\n        /* \"WillContract.sol\":877:904  return userContracts[_user] */\n      dup1\n      sload\n      dup1\n      0x20\n      mul\n      0x20\n      add\n      mload(0x40)\n      swap1\n      dup2\n      add\n      0x40\n      mstore\n      dup1\n      swap3\n      swap2\n      swap1\n      dup2\n      dup2\n      mstore\n      0x20\n      add\n      dup3\n      dup1\n      sload\n      dup1\n      iszero\n      tag_34\n      jumpi\n      0x20\n      mul\n      dup3\n      add\n      swap2\n      swap1\n      0x00\n      mstore\n      keccak256(0x00, 0x20)\n      swap1\n    tag_35:\n      dup2\n      0x00\n      swap1\n      sload\n      swap1\n      0x0100\n      exp\n      swap1\n      div\n      0xffffffffffffffffffffffffffffffffffffffff\n      and\n      0xffffffffffffffffffffffffffffffffffffffff\n      and\n      dup2\n      mstore\n      0x20\n      add\n      swap1\n      0x01\n      add\n      swap1\n      dup1\n      dup4\n      gt\n      tag_35\n      jumpi\n    tag_34:\n      pop\n      pop\n      pop\n      pop\n      pop\n      swap1\n      pop\n        /* \"WillContract.sol\":785:911  function getUserContracts(address _user) external view returns (address[] memory) {... */\n      swap2\n      swap1\n      pop\n      jump\t// out\n        /* \"WillContract.sol\":94:128  address[] public deployedContracts */\n    tag_17:\n      0x00\n      dup2\n      dup2\n      sload\n      dup2\n      lt\n      tag_36\n      jumpi\n      0x00\n      dup1\n      revert\n    tag_36:\n      swap1\n      0x00\n      mstore\n      keccak256(0x00, 0x20)\n      add\n      0x00\n      swap2\n      pop\n      sload\n      swap1\n      0x0100\n      exp\n      swap1\n      div\n      0xffffffffffffffffffffffffffffffffffffffff\n      and\n      dup2\n      jump\t// out\n        /* \"WillContract.sol\":917:1034  function getTotalDeployedContracts() external view returns (uint256) {... */\n    tag_21:\n        /* \"WillContract.sol\":977:984  uint256 */\n      0x00\n        /* \"WillContract.sol\":1003:1020  deployedContracts */\n      0x00\n        /* \"WillContract.sol\":1003:1027  deployedContracts.length */\n      dup1\n      sload\n      swap1\n      pop\n        /* \"WillContract.sol\":996:1027  return deployedContracts.length */\n      swap1\n      pop\n        /* \"WillContract.sol\":917:1034  function getTotalDeployedContracts() external view returns (uint256) {... */\n      swap1\n      jump\t// out\n        /* \"WillContract.sol\":134:184  mapping(address => address[]) public userContracts */\n    tag_27:\n      mstore(0x20, 0x01)\n      dup2\n      0x00\n      mstore\n      keccak256(0x00, 0x40)\n      dup2\n      dup2\n      sload\n      dup2\n      lt\n      tag_39\n      jumpi\n      0x00\n      dup1\n      revert\n    tag_39:\n      swap1\n      0x00\n      mstore\n      keccak256(0x00, 0x20)\n      add\n      0x00\n      swap2\n      pop\n      swap2\n      pop\n      swap1\n      sload\n      swap1\n      0x0100\n      exp\n      swap1\n      div\n      0xffffffffffffffffffffffffffffffffffffffff\n      and\n      dup2\n      jump\t// out\n        /* \"WillContract.sol\":327:779  function createWillContract(address _recipient) external returns (address) {... */\n    tag_31:\n        /* \"WillContract.sol\":393:400  address */\n      0x00\n        /* \"WillContract.sol\":412:436  WillContract newContract */\n      0x00\n        /* \"WillContract.sol\":456:466  _recipient */\n      dup3\n        /* \"WillContract.sol\":468:478  msg.sender */\n      caller\n        /* \"WillContract.sol\":439:479  new WillContract(_recipient, msg.sender) */\n      mload(0x40)\n      tag_42\n      swap1\n      tag_43\n      jump\t// in\n    tag_42:\n      tag_44\n      swap3\n      swap2\n      swap1\n      tag_45\n      jump\t// in\n    tag_44:\n      mload(0x40)\n      dup1\n      swap2\n      sub\n      swap1\n      0x00\n      create\n      dup1\n      iszero\n      dup1\n      iszero\n      tag_46\n      jumpi\n      returndatacopy(0x00, 0x00, returndatasize)\n      revert(0x00, returndatasize)\n    tag_46:\n      pop\n        /* \"WillContract.sol\":412:479  WillContract newContract = new WillContract(_recipient, msg.sender) */\n      swap1\n      pop\n        /* \"WillContract.sol\":489:512  address contractAddress */\n      0x00\n        /* \"WillContract.sol\":523:534  newContract */\n      dup2\n        /* \"WillContract.sol\":489:535  address contractAddress = address(newContract) */\n      swap1\n      pop\n        /* \"WillContract.sol\":554:571  deployedContracts */\n      0x00\n        /* \"WillContract.sol\":577:592  contractAddress */\n      dup2\n        /* \"WillContract.sol\":554:593  deployedContracts.push(contractAddress) */\n      swap1\n      dup1\n      0x01\n      dup2\n      sload\n      add\n      dup1\n      dup3\n      sstore\n      dup1\n      swap2\n      pop\n      pop\n      0x01\n      swap1\n      sub\n      swap1\n      0x00\n      mstore\n      keccak256(0x00, 0x20)\n      add\n      0x00\n      swap1\n      swap2\n      swap1\n      swap2\n      swap1\n      swap2\n      0x0100\n      exp\n      dup2\n      sload\n      dup2\n      0xffffffffffffffffffffffffffffffffffffffff\n      mul\n      not\n      and\n      swap1\n      dup4\n      0xffffffffffffffffffffffffffffffffffffffff\n      and\n      mul\n      or\n      swap1\n      sstore\n      pop\n        /* \"WillContract.sol\":603:616  userContracts */\n      0x01\n        /* \"WillContract.sol\":603:628  userContracts[msg.sender] */\n      0x00\n        /* \"WillContract.sol\":617:627  msg.sender */\n      caller\n        /* \"WillContract.sol\":603:628  userContracts[msg.sender] */\n      0xffffffffffffffffffffffffffffffffffffffff\n      and\n      0xffffffffffffffffffffffffffffffffffffffff\n      and\n      dup2\n      mstore\n      0x20\n      add\n      swap1\n      dup2\n      mstore\n      0x20\n      add\n      0x00\n      keccak256\n        /* \"WillContract.sol\":634:649  contractAddress */\n      dup2\n        /* \"WillContract.sol\":603:650  userContracts[msg.sender].push(contractAddress) */\n      swap1\n      dup1\n      0x01\n      dup2\n      sload\n      add\n      dup1\n      dup3\n      sstore\n      dup1\n      swap2\n      pop\n      pop\n      0x01\n      swap1\n      sub\n      swap1\n      0x00\n      mstore\n      keccak256(0x00, 0x20)\n      add\n      0x00\n      swap1\n      swap2\n      swap1\n      swap2\n      swap1\n      swap2\n      0x0100\n      exp\n      dup2\n      sload\n      dup2\n      0xffffffffffffffffffffffffffffffffffffffff\n      mul\n      not\n      and\n      swap1\n      dup4\n      0xffffffffffffffffffffffffffffffffffffffff\n      and\n      mul\n      or\n      swap1\n      sstore\n      pop\n        /* \"WillContract.sol\":703:713  _recipient */\n      dup4\n        /* \"WillContract.sol\":674:731  ContractDeployed(msg.sender, _recipient, contractAddress) */\n      0xffffffffffffffffffffffffffffffffffffffff\n      and\n        /* \"WillContract.sol\":691:701  msg.sender */\n      caller\n        /* \"WillContract.sol\":674:731  ContractDeployed(msg.sender, _recipient, contractAddress) */\n      0xffffffffffffffffffffffffffffffffffffffff\n      and\n      0x8a14d1d7200360982eafa429b53edf408f7f589e6da6558f3c116c7f708327b3\n        /* \"WillContract.sol\":715:730  contractAddress */\n      dup4\n        /* \"WillContract.sol\":674:731  ContractDeployed(msg.sender, _recipient, contractAddress) */\n      mload(0x40)\n      tag_49\n      swap2\n      swap1\n      tag_19\n      jump\t// in\n    tag_49:\n      mload(0x40)\n      dup1\n      swap2\n      sub\n      swap1\n      log3\n        /* \"WillContract.sol\":757:772  contractAddress */\n      dup1\n        /* \"WillContract.sol\":750:772  return contractAddress */\n      swap3\n      pop\n      pop\n      pop\n        /* \"WillContract.sol\":327:779  function createWillContract(address _recipient) external returns (address) {... */\n      swap2\n      swap1\n      pop\n      jump\t// out\n    tag_43:\n      dataSize(sub_0)\n      dup1\n      dataOffset(sub_0)\n      dup4\n      codecopy\n      add\n      swap1\n      jump\t// out\n        /* \"#utility.yul\":88:205   */\n    tag_51:\n        /* \"#utility.yul\":197:198   */\n      0x00\n        /* \"#utility.yul\":194:195   */\n      0x00\n        /* \"#utility.yul\":187:199   */\n      revert\n        /* \"#utility.yul\":334:460   */\n    tag_53:\n        /* \"#utility.yul\":371:378   */\n      0x00\n        /* \"#utility.yul\":411:453   */\n      0xffffffffffffffffffffffffffffffffffffffff\n        /* \"#utility.yul\":404:409   */\n      dup3\n        /* \"#utility.yul\":400:454   */\n      and\n        /* \"#utility.yul\":389:454   */\n      swap1\n      pop\n        /* \"#utility.yul\":334:460   */\n      swap2\n      swap1\n      pop\n      jump\t// out\n        /* \"#utility.yul\":466:562   */\n    tag_54:\n        /* \"#utility.yul\":503:510   */\n      0x00\n        /* \"#utility.yul\":532:556   */\n      tag_75\n        /* \"#utility.yul\":550:555   */\n      dup3\n        /* \"#utility.yul\":532:556   */\n      tag_53\n      jump\t// in\n    tag_75:\n        /* \"#utility.yul\":521:556   */\n      swap1\n      pop\n        /* \"#utility.yul\":466:562   */\n      swap2\n      swap1\n      pop\n      jump\t// out\n        /* \"#utility.yul\":568:690   */\n    tag_55:\n        /* \"#utility.yul\":641:665   */\n      tag_77\n        /* \"#utility.yul\":659:664   */\n      dup2\n        /* \"#utility.yul\":641:665   */\n      tag_54\n      jump\t// in\n    tag_77:\n        /* \"#utility.yul\":634:639   */\n      dup2\n        /* \"#utility.yul\":631:666   */\n      eq\n        /* \"#utility.yul\":621:684   */\n      tag_78\n      jumpi\n        /* \"#utility.yul\":680:681   */\n      0x00\n        /* \"#utility.yul\":677:678   */\n      0x00\n        /* \"#utility.yul\":670:682   */\n      revert\n        /* \"#utility.yul\":621:684   */\n    tag_78:\n        /* \"#utility.yul\":568:690   */\n      pop\n      jump\t// out\n        /* \"#utility.yul\":696:835   */\n    tag_56:\n        /* \"#utility.yul\":742:747   */\n      0x00\n        /* \"#utility.yul\":780:786   */\n      dup2\n        /* \"#utility.yul\":767:787   */\n      calldataload\n        /* \"#utility.yul\":758:787   */\n      swap1\n      pop\n        /* \"#utility.yul\":796:829   */\n      tag_80\n        /* \"#utility.yul\":823:828   */\n      dup2\n        /* \"#utility.yul\":796:829   */\n      tag_55\n      jump\t// in\n    tag_80:\n        /* \"#utility.yul\":696:835   */\n      swap3\n      swap2\n      pop\n      pop\n      jump\t// out\n        /* \"#utility.yul\":841:1170   */\n    tag_10:\n        /* \"#utility.yul\":900:906   */\n      0x00\n        /* \"#utility.yul\":949:951   */\n      0x20\n        /* \"#utility.yul\":937:946   */\n      dup3\n        /* \"#utility.yul\":928:935   */\n      dup5\n        /* \"#utility.yul\":924:947   */\n      sub\n        /* \"#utility.yul\":920:952   */\n      slt\n        /* \"#utility.yul\":917:1036   */\n      iszero\n      tag_82\n      jumpi\n        /* \"#utility.yul\":955:1034   */\n      tag_83\n      tag_51\n      jump\t// in\n    tag_83:\n        /* \"#utility.yul\":917:1036   */\n    tag_82:\n        /* \"#utility.yul\":1075:1076   */\n      0x00\n        /* \"#utility.yul\":1100:1153   */\n      tag_84\n        /* \"#utility.yul\":1145:1152   */\n      dup5\n        /* \"#utility.yul\":1136:1142   */\n      dup3\n        /* \"#utility.yul\":1125:1134   */\n      dup6\n        /* \"#utility.yul\":1121:1143   */\n      add\n        /* \"#utility.yul\":1100:1153   */\n      tag_56\n      jump\t// in\n    tag_84:\n        /* \"#utility.yul\":1090:1153   */\n      swap2\n      pop\n        /* \"#utility.yul\":1046:1163   */\n      pop\n        /* \"#utility.yul\":841:1170   */\n      swap3\n      swap2\n      pop\n      pop\n      jump\t// out\n        /* \"#utility.yul\":1176:1290   */\n    tag_57:\n        /* \"#utility.yul\":1243:1249   */\n      0x00\n        /* \"#utility.yul\":1277:1282   */\n      dup2\n        /* \"#utility.yul\":1271:1283   */\n      mload\n        /* \"#utility.yul\":1261:1283   */\n      swap1\n      pop\n        /* \"#utility.yul\":1176:1290   */\n      swap2\n      swap1\n      pop\n      jump\t// out\n        /* \"#utility.yul\":1296:1480   */\n    tag_58:\n        /* \"#utility.yul\":1395:1406   */\n      0x00\n        /* \"#utility.yul\":1429:1435   */\n      dup3\n        /* \"#utility.yul\":1424:1427   */\n      dup3\n        /* \"#utility.yul\":1417:1436   */\n      mstore\n        /* \"#utility.yul\":1469:1473   */\n      0x20\n        /* \"#utility.yul\":1464:1467   */\n      dup3\n        /* \"#utility.yul\":1460:1474   */\n      add\n        /* \"#utility.yul\":1445:1474   */\n      swap1\n      pop\n        /* \"#utility.yul\":1296:1480   */\n      swap3\n      swap2\n      pop\n      pop\n      jump\t// out\n        /* \"#utility.yul\":1486:1618   */\n    tag_59:\n        /* \"#utility.yul\":1553:1557   */\n      0x00\n        /* \"#utility.yul\":1576:1579   */\n      dup2\n        /* \"#utility.yul\":1568:1579   */\n      swap1\n      pop\n        /* \"#utility.yul\":1606:1610   */\n      0x20\n        /* \"#utility.yul\":1601:1604   */\n      dup3\n        /* \"#utility.yul\":1597:1611   */\n      add\n        /* \"#utility.yul\":1589:1611   */\n      swap1\n      pop\n        /* \"#utility.yul\":1486:1618   */\n      swap2\n      swap1\n      pop\n      jump\t// out\n        /* \"#utility.yul\":1624:1732   */\n    tag_60:\n        /* \"#utility.yul\":1701:1725   */\n      tag_89\n        /* \"#utility.yul\":1719:1724   */\n      dup2\n        /* \"#utility.yul\":1701:1725   */\n      tag_54\n      jump\t// in\n    tag_89:\n        /* \"#utility.yul\":1696:1699   */\n      dup3\n        /* \"#utility.yul\":1689:1726   */\n      mstore\n        /* \"#utility.yul\":1624:1732   */\n      pop\n      pop\n      jump\t// out\n        /* \"#utility.yul\":1738:1917   */\n    tag_61:\n        /* \"#utility.yul\":1807:1817   */\n      0x00\n        /* \"#utility.yul\":1828:1874   */\n      tag_91\n        /* \"#utility.yul\":1870:1873   */\n      dup4\n        /* \"#utility.yul\":1862:1868   */\n      dup4\n        /* \"#utility.yul\":1828:1874   */\n      tag_60\n      jump\t// in\n    tag_91:\n        /* \"#utility.yul\":1906:1910   */\n      0x20\n        /* \"#utility.yul\":1901:1904   */\n      dup4\n        /* \"#utility.yul\":1897:1911   */\n      add\n        /* \"#utility.yul\":1883:1911   */\n      swap1\n      pop\n        /* \"#utility.yul\":1738:1917   */\n      swap3\n      swap2\n      pop\n      pop\n      jump\t// out\n        /* \"#utility.yul\":1923:2036   */\n    tag_62:\n        /* \"#utility.yul\":1993:1997   */\n      0x00\n        /* \"#utility.yul\":2025:2029   */\n      0x20\n        /* \"#utility.yul\":2020:2023   */\n      dup3\n        /* \"#utility.yul\":2016:2030   */\n      add\n        /* \"#utility.yul\":2008:2030   */\n      swap1\n      pop\n        /* \"#utility.yul\":1923:2036   */\n      swap2\n      swap1\n      pop\n      jump\t// out\n        /* \"#utility.yul\":2072:2804   */\n    tag_63:\n        /* \"#utility.yul\":2191:2194   */\n      0x00\n        /* \"#utility.yul\":2220:2274   */\n      tag_94\n        /* \"#utility.yul\":2268:2273   */\n      dup3\n        /* \"#utility.yul\":2220:2274   */\n      tag_57\n      jump\t// in\n    tag_94:\n        /* \"#utility.yul\":2290:2376   */\n      tag_95\n        /* \"#utility.yul\":2369:2375   */\n      dup2\n        /* \"#utility.yul\":2364:2367   */\n      dup6\n        /* \"#utility.yul\":2290:2376   */\n      tag_58\n      jump\t// in\n    tag_95:\n        /* \"#utility.yul\":2283:2376   */\n      swap4\n      pop\n        /* \"#utility.yul\":2400:2456   */\n      tag_96\n        /* \"#utility.yul\":2450:2455   */\n      dup4\n        /* \"#utility.yul\":2400:2456   */\n      tag_59\n      jump\t// in\n    tag_96:\n        /* \"#utility.yul\":2479:2486   */\n      dup1\n        /* \"#utility.yul\":2510:2511   */\n      0x00\n        /* \"#utility.yul\":2495:2779   */\n    tag_97:\n        /* \"#utility.yul\":2520:2526   */\n      dup4\n        /* \"#utility.yul\":2517:2518   */\n      dup2\n        /* \"#utility.yul\":2514:2527   */\n      lt\n        /* \"#utility.yul\":2495:2779   */\n      iszero\n      tag_99\n      jumpi\n        /* \"#utility.yul\":2596:2602   */\n      dup2\n        /* \"#utility.yul\":2590:2603   */\n      mload\n        /* \"#utility.yul\":2623:2686   */\n      tag_100\n        /* \"#utility.yul\":2682:2685   */\n      dup9\n        /* \"#utility.yul\":2667:2680   */\n      dup3\n        /* \"#utility.yul\":2623:2686   */\n      tag_61\n      jump\t// in\n    tag_100:\n        /* \"#utility.yul\":2616:2686   */\n      swap8\n      pop\n        /* \"#utility.yul\":2709:2769   */\n      tag_101\n        /* \"#utility.yul\":2762:2768   */\n      dup4\n        /* \"#utility.yul\":2709:2769   */\n      tag_62\n      jump\t// in\n    tag_101:\n        /* \"#utility.yul\":2699:2769   */\n      swap3\n      pop\n        /* \"#utility.yul\":2555:2779   */\n      pop\n        /* \"#utility.yul\":2542:2543   */\n      0x01\n        /* \"#utility.yul\":2539:2540   */\n      dup2\n        /* \"#utility.yul\":2535:2544   */\n      add\n        /* \"#utility.yul\":2530:2544   */\n      swap1\n      pop\n        /* \"#utility.yul\":2495:2779   */\n      jump(tag_97)\n    tag_99:\n        /* \"#utility.yul\":2499:2513   */\n      pop\n        /* \"#utility.yul\":2795:2798   */\n      dup6\n        /* \"#utility.yul\":2788:2798   */\n      swap4\n      pop\n        /* \"#utility.yul\":2196:2804   */\n      pop\n      pop\n      pop\n        /* \"#utility.yul\":2072:2804   */\n      swap3\n      swap2\n      pop\n      pop\n      jump\t// out\n        /* \"#utility.yul\":2810:3183   */\n    tag_13:\n        /* \"#utility.yul\":2953:2957   */\n      0x00\n        /* \"#utility.yul\":2991:2993   */\n      0x20\n        /* \"#utility.yul\":2980:2989   */\n      dup3\n        /* \"#utility.yul\":2976:2994   */\n      add\n        /* \"#utility.yul\":2968:2994   */\n      swap1\n      pop\n        /* \"#utility.yul\":3040:3049   */\n      dup2\n        /* \"#utility.yul\":3034:3038   */\n      dup2\n        /* \"#utility.yul\":3030:3050   */\n      sub\n        /* \"#utility.yul\":3026:3027   */\n      0x00\n        /* \"#utility.yul\":3015:3024   */\n      dup4\n        /* \"#utility.yul\":3011:3028   */\n      add\n        /* \"#utility.yul\":3004:3051   */\n      mstore\n        /* \"#utility.yul\":3068:3176   */\n      tag_103\n        /* \"#utility.yul\":3171:3175   */\n      dup2\n        /* \"#utility.yul\":3162:3168   */\n      dup5\n        /* \"#utility.yul\":3068:3176   */\n      tag_63\n      jump\t// in\n    tag_103:\n        /* \"#utility.yul\":3060:3176   */\n      swap1\n      pop\n        /* \"#utility.yul\":2810:3183   */\n      swap3\n      swap2\n      pop\n      pop\n      jump\t// out\n        /* \"#utility.yul\":3189:3266   */\n    tag_64:\n        /* \"#utility.yul\":3226:3233   */\n      0x00\n        /* \"#utility.yul\":3255:3260   */\n      dup2\n        /* \"#utility.yul\":3244:3260   */\n      swap1\n      pop\n        /* \"#utility.yul\":3189:3266   */\n      swap2\n      swap1\n      pop\n      jump\t// out\n        /* \"#utility.yul\":3272:3394   */\n    tag_65:\n        /* \"#utility.yul\":3345:3369   */\n      tag_106\n        /* \"#utility.yul\":3363:3368   */\n      dup2\n        /* \"#utility.yul\":3345:3369   */\n      tag_64\n      jump\t// in\n    tag_106:\n        /* \"#utility.yul\":3338:3343   */\n      dup2\n        /* \"#utility.yul\":3335:3370   */\n      eq\n        /* \"#utility.yul\":3325:3388   */\n      tag_107\n      jumpi\n        /* \"#utility.yul\":3384:3385   */\n      0x00\n        /* \"#utility.yul\":3381:3382   */\n      0x00\n        /* \"#utility.yul\":3374:3386   */\n      revert\n        /* \"#utility.yul\":3325:3388   */\n    tag_107:\n        /* \"#utility.yul\":3272:3394   */\n      pop\n      jump\t// out\n        /* \"#utility.yul\":3400:3539   */\n    tag_66:\n        /* \"#utility.yul\":3446:3451   */\n      0x00\n        /* \"#utility.yul\":3484:3490   */\n      dup2\n        /* \"#utility.yul\":3471:3491   */\n      calldataload\n        /* \"#utility.yul\":3462:3491   */\n      swap1\n      pop\n        /* \"#utility.yul\":3500:3533   */\n      tag_109\n        /* \"#utility.yul\":3527:3532   */\n      dup2\n        /* \"#utility.yul\":3500:3533   */\n      tag_65\n      jump\t// in\n    tag_109:\n        /* \"#utility.yul\":3400:3539   */\n      swap3\n      swap2\n      pop\n      pop\n      jump\t// out\n        /* \"#utility.yul\":3545:3874   */\n    tag_16:\n        /* \"#utility.yul\":3604:3610   */\n      0x00\n        /* \"#utility.yul\":3653:3655   */\n      0x20\n        /* \"#utility.yul\":3641:3650   */\n      dup3\n        /* \"#utility.yul\":3632:3639   */\n      dup5\n        /* \"#utility.yul\":3628:3651   */\n      sub\n        /* \"#utility.yul\":3624:3656   */\n      slt\n        /* \"#utility.yul\":3621:3740   */\n      iszero\n      tag_111\n      jumpi\n        /* \"#utility.yul\":3659:3738   */\n      tag_112\n      tag_51\n      jump\t// in\n    tag_112:\n        /* \"#utility.yul\":3621:3740   */\n    tag_111:\n        /* \"#utility.yul\":3779:3780   */\n      0x00\n        /* \"#utility.yul\":3804:3857   */\n      tag_113\n        /* \"#utility.yul\":3849:3856   */\n      dup5\n        /* \"#utility.yul\":3840:3846   */\n      dup3\n        /* \"#utility.yul\":3829:3838   */\n      dup6\n        /* \"#utility.yul\":3825:3847   */\n      add\n        /* \"#utility.yul\":3804:3857   */\n      tag_66\n      jump\t// in\n    tag_113:\n        /* \"#utility.yul\":3794:3857   */\n      swap2\n      pop\n        /* \"#utility.yul\":3750:3867   */\n      pop\n        /* \"#utility.yul\":3545:3874   */\n      swap3\n      swap2\n      pop\n      pop\n      jump\t// out\n        /* \"#utility.yul\":3880:3998   */\n    tag_67:\n        /* \"#utility.yul\":3967:3991   */\n      tag_115\n        /* \"#utility.yul\":3985:3990   */\n      dup2\n        /* \"#utility.yul\":3967:3991   */\n      tag_54\n      jump\t// in\n    tag_115:\n        /* \"#utility.yul\":3962:3965   */\n      dup3\n        /* \"#utility.yul\":3955:3992   */\n      mstore\n        /* \"#utility.yul\":3880:3998   */\n      pop\n      pop\n      jump\t// out\n        /* \"#utility.yul\":4004:4226   */\n    tag_19:\n        /* \"#utility.yul\":4097:4101   */\n      0x00\n        /* \"#utility.yul\":4135:4137   */\n      0x20\n        /* \"#utility.yul\":4124:4133   */\n      dup3\n        /* \"#utility.yul\":4120:4138   */\n      add\n        /* \"#utility.yul\":4112:4138   */\n      swap1\n      pop\n        /* \"#utility.yul\":4148:4219   */\n      tag_117\n        /* \"#utility.yul\":4216:4217   */\n      0x00\n        /* \"#utility.yul\":4205:4214   */\n      dup4\n        /* \"#utility.yul\":4201:4218   */\n      add\n        /* \"#utility.yul\":4192:4198   */\n      dup5\n        /* \"#utility.yul\":4148:4219   */\n      tag_67\n      jump\t// in\n    tag_117:\n        /* \"#utility.yul\":4004:4226   */\n      swap3\n      swap2\n      pop\n      pop\n      jump\t// out\n        /* \"#utility.yul\":4232:4350   */\n    tag_68:\n        /* \"#utility.yul\":4319:4343   */\n      tag_119\n        /* \"#utility.yul\":4337:4342   */\n      dup2\n        /* \"#utility.yul\":4319:4343   */\n      tag_64\n      jump\t// in\n    tag_119:\n        /* \"#utility.yul\":4314:4317   */\n      dup3\n        /* \"#utility.yul\":4307:4344   */\n      mstore\n        /* \"#utility.yul\":4232:4350   */\n      pop\n      pop\n      jump\t// out\n        /* \"#utility.yul\":4356:4578   */\n    tag_23:\n        /* \"#utility.yul\":4449:4453   */\n      0x00\n        /* \"#utility.yul\":4487:4489   */\n      0x20\n        /* \"#utility.yul\":4476:4485   */\n      dup3\n        /* \"#utility.yul\":4472:4490   */\n      add\n        /* \"#utility.yul\":4464:4490   */\n      swap1\n      pop\n        /* \"#utility.yul\":4500:4571   */\n      tag_121\n        /* \"#utility.yul\":4568:4569   */\n      0x00\n        /* \"#utility.yul\":4557:4566   */\n      dup4\n        /* \"#utility.yul\":4553:4570   */\n      add\n        /* \"#utility.yul\":4544:4550   */\n      dup5\n        /* \"#utility.yul\":4500:4571   */\n      tag_68\n      jump\t// in\n    tag_121:\n        /* \"#utility.yul\":4356:4578   */\n      swap3\n      swap2\n      pop\n      pop\n      jump\t// out\n        /* \"#utility.yul\":4584:5058   */\n    tag_26:\n        /* \"#utility.yul\":4652:4658   */\n      0x00\n        /* \"#utility.yul\":4660:4666   */\n      0x00\n        /* \"#utility.yul\":4709:4711   */\n      0x40\n        /* \"#utility.yul\":4697:4706   */\n      dup4\n        /* \"#utility.yul\":4688:4695   */\n      dup6\n        /* \"#utility.yul\":4684:4707   */\n      sub\n        /* \"#utility.yul\":4680:4712   */\n      slt\n        /* \"#utility.yul\":4677:4796   */\n      iszero\n      tag_123\n      jumpi\n        /* \"#utility.yul\":4715:4794   */\n      tag_124\n      tag_51\n      jump\t// in\n    tag_124:\n        /* \"#utility.yul\":4677:4796   */\n    tag_123:\n        /* \"#utility.yul\":4835:4836   */\n      0x00\n        /* \"#utility.yul\":4860:4913   */\n      tag_125\n        /* \"#utility.yul\":4905:4912   */\n      dup6\n        /* \"#utility.yul\":4896:4902   */\n      dup3\n        /* \"#utility.yul\":4885:4894   */\n      dup7\n        /* \"#utility.yul\":4881:4903   */\n      add\n        /* \"#utility.yul\":4860:4913   */\n      tag_56\n      jump\t// in\n    tag_125:\n        /* \"#utility.yul\":4850:4913   */\n      swap3\n      pop\n        /* \"#utility.yul\":4806:4923   */\n      pop\n        /* \"#utility.yul\":4962:4964   */\n      0x20\n        /* \"#utility.yul\":4988:5041   */\n      tag_126\n        /* \"#utility.yul\":5033:5040   */\n      dup6\n        /* \"#utility.yul\":5024:5030   */\n      dup3\n        /* \"#utility.yul\":5013:5022   */\n      dup7\n        /* \"#utility.yul\":5009:5031   */\n      add\n        /* \"#utility.yul\":4988:5041   */\n      tag_66\n      jump\t// in\n    tag_126:\n        /* \"#utility.yul\":4978:5041   */\n      swap2\n      pop\n        /* \"#utility.yul\":4933:5051   */\n      pop\n        /* \"#utility.yul\":4584:5058   */\n      swap3\n      pop\n      swap3\n      swap1\n      pop\n      jump\t// out\n        /* \"#utility.yul\":5064:5396   */\n    tag_45:\n        /* \"#utility.yul\":5185:5189   */\n      0x00\n        /* \"#utility.yul\":5223:5225   */\n      0x40\n        /* \"#utility.yul\":5212:5221   */\n      dup3\n        /* \"#utility.yul\":5208:5226   */\n      add\n        /* \"#utility.yul\":5200:5226   */\n      swap1\n      pop\n        /* \"#utility.yul\":5236:5307   */\n      tag_128\n        /* \"#utility.yul\":5304:5305   */\n      0x00\n        /* \"#utility.yul\":5293:5302   */\n      dup4\n        /* \"#utility.yul\":5289:5306   */\n      add\n        /* \"#utility.yul\":5280:5286   */\n      dup6\n        /* \"#utility.yul\":5236:5307   */\n      tag_67\n      jump\t// in\n    tag_128:\n        /* \"#utility.yul\":5317:5389   */\n      tag_129\n        /* \"#utility.yul\":5385:5387   */\n      0x20\n        /* \"#utility.yul\":5374:5383   */\n      dup4\n        /* \"#utility.yul\":5370:5388   */\n      add\n        /* \"#utility.yul\":5361:5367   */\n      dup5\n        /* \"#utility.yul\":5317:5389   */\n      tag_67\n      jump\t// in\n    tag_129:\n        /* \"#utility.yul\":5064:5396   */\n      swap4\n      swap3\n      pop\n      pop\n      pop\n      jump\t// out\n    stop\n\n    sub_0: assembly {\n            /* \"WillContract.sol\":1037:3119  contract WillContract {... */\n          mstore(0x40, 0x80)\n            /* \"WillContract.sol\":1493:1649  constructor(address _recipient, address _owner) {... */\n          callvalue\n          dup1\n          iszero\n          tag_1\n          jumpi\n          revert(0x00, 0x00)\n        tag_1:\n          pop\n          mload(0x40)\n          sub(codesize, bytecodeSize)\n          dup1\n          bytecodeSize\n          dup4\n          codecopy\n          dup2\n          dup2\n          add\n          0x40\n          mstore\n          dup2\n          add\n          swap1\n          tag_2\n          swap2\n          swap1\n          tag_3\n          jump\t// in\n        tag_2:\n            /* \"WillContract.sol\":1559:1565  _owner */\n          dup1\n            /* \"WillContract.sol\":1551:1556  owner */\n          0x00\n          0x00\n            /* \"WillContract.sol\":1551:1565  owner = _owner */\n          0x0100\n          exp\n          dup2\n          sload\n          dup2\n          0xffffffffffffffffffffffffffffffffffffffff\n          mul\n          not\n          and\n          swap1\n          dup4\n          0xffffffffffffffffffffffffffffffffffffffff\n          and\n          mul\n          or\n          swap1\n          sstore\n          pop\n            /* \"WillContract.sol\":1587:1597  _recipient */\n          dup2\n            /* \"WillContract.sol\":1575:1584  recipient */\n          0x01\n          0x00\n            /* \"WillContract.sol\":1575:1597  recipient = _recipient */\n          0x0100\n          exp\n          dup2\n          sload\n          dup2\n          0xffffffffffffffffffffffffffffffffffffffff\n          mul\n          not\n          and\n          swap1\n          dup4\n          0xffffffffffffffffffffffffffffffffffffffff\n          and\n          mul\n          or\n          swap1\n          sstore\n          pop\n            /* \"WillContract.sol\":1627:1642  block.timestamp */\n          timestamp\n            /* \"WillContract.sol\":1607:1624  lastPingTimestamp */\n          0x02\n            /* \"WillContract.sol\":1607:1642  lastPingTimestamp = block.timestamp */\n          dup2\n          swap1\n          sstore\n          pop\n            /* \"WillContract.sol\":1493:1649  constructor(address _recipient, address _owner) {... */\n          pop\n          pop\n            /* \"WillContract.sol\":1037:3119  contract WillContract {... */\n          jump(tag_6)\n            /* \"#utility.yul\":88:205   */\n        tag_8:\n            /* \"#utility.yul\":197:198   */\n          0x00\n            /* \"#utility.yul\":194:195   */\n          0x00\n            /* \"#utility.yul\":187:199   */\n          revert\n            /* \"#utility.yul\":334:460   */\n        tag_10:\n            /* \"#utility.yul\":371:378   */\n          0x00\n            /* \"#utility.yul\":411:453   */\n          0xffffffffffffffffffffffffffffffffffffffff\n            /* \"#utility.yul\":404:409   */\n          dup3\n            /* \"#utility.yul\":400:454   */\n          and\n            /* \"#utility.yul\":389:454   */\n          swap1\n          pop\n            /* \"#utility.yul\":334:460   */\n          swap2\n          swap1\n          pop\n          jump\t// out\n            /* \"#utility.yul\":466:562   */\n        tag_11:\n            /* \"#utility.yul\":503:510   */\n          0x00\n            /* \"#utility.yul\":532:556   */\n          tag_20\n            /* \"#utility.yul\":550:555   */\n          dup3\n            /* \"#utility.yul\":532:556   */\n          tag_10\n          jump\t// in\n        tag_20:\n            /* \"#utility.yul\":521:556   */\n          swap1\n          pop\n            /* \"#utility.yul\":466:562   */\n          swap2\n          swap1\n          pop\n          jump\t// out\n            /* \"#utility.yul\":568:690   */\n        tag_12:\n            /* \"#utility.yul\":641:665   */\n          tag_22\n            /* \"#utility.yul\":659:664   */\n          dup2\n            /* \"#utility.yul\":641:665   */\n          tag_11\n          jump\t// in\n        tag_22:\n            /* \"#utility.yul\":634:639   */\n          dup2\n            /* \"#utility.yul\":631:666   */\n          eq\n            /* \"#utility.yul\":621:684   */\n          tag_23\n          jumpi\n            /* \"#utility.yul\":680:681   */\n          0x00\n            /* \"#utility.yul\":677:678   */\n          0x00\n            /* \"#utility.yul\":670:682   */\n          revert\n            /* \"#utility.yul\":621:684   */\n        tag_23:\n            /* \"#utility.yul\":568:690   */\n          pop\n          jump\t// out\n            /* \"#utility.yul\":696:839   */\n        tag_13:\n            /* \"#utility.yul\":753:758   */\n          0x00\n            /* \"#utility.yul\":784:790   */\n          dup2\n            /* \"#utility.yul\":778:791   */\n          mload\n            /* \"#utility.yul\":769:791   */\n          swap1\n          pop\n            /* \"#utility.yul\":800:833   */\n          tag_25\n            /* \"#utility.yul\":827:832   */\n          dup2\n            /* \"#utility.yul\":800:833   */\n          tag_12\n          jump\t// in\n        tag_25:\n            /* \"#utility.yul\":696:839   */\n          swap3\n          swap2\n          pop\n          pop\n          jump\t// out\n            /* \"#utility.yul\":845:1352   */\n        tag_3:\n            /* \"#utility.yul\":924:930   */\n          0x00\n            /* \"#utility.yul\":932:938   */\n          0x00\n            /* \"#utility.yul\":981:983   */\n          0x40\n            /* \"#utility.yul\":969:978   */\n          dup4\n            /* \"#utility.yul\":960:967   */\n          dup6\n            /* \"#utility.yul\":956:979   */\n          sub\n            /* \"#utility.yul\":952:984   */\n          slt\n            /* \"#utility.yul\":949:1068   */\n          iszero\n          tag_27\n          jumpi\n            /* \"#utility.yul\":987:1066   */\n          tag_28\n          tag_8\n          jump\t// in\n        tag_28:\n            /* \"#utility.yul\":949:1068   */\n        tag_27:\n            /* \"#utility.yul\":1107:1108   */\n          0x00\n            /* \"#utility.yul\":1132:1196   */\n          tag_29\n            /* \"#utility.yul\":1188:1195   */\n          dup6\n            /* \"#utility.yul\":1179:1185   */\n          dup3\n            /* \"#utility.yul\":1168:1177   */\n          dup7\n            /* \"#utility.yul\":1164:1186   */\n          add\n            /* \"#utility.yul\":1132:1196   */\n          tag_13\n          jump\t// in\n        tag_29:\n            /* \"#utility.yul\":1122:1196   */\n          swap3\n          pop\n            /* \"#utility.yul\":1078:1206   */\n          pop\n            /* \"#utility.yul\":1245:1247   */\n          0x20\n            /* \"#utility.yul\":1271:1335   */\n          tag_30\n            /* \"#utility.yul\":1327:1334   */\n          dup6\n            /* \"#utility.yul\":1318:1324   */\n          dup3\n            /* \"#utility.yul\":1307:1316   */\n          dup7\n            /* \"#utility.yul\":1303:1325   */\n          add\n            /* \"#utility.yul\":1271:1335   */\n          tag_13\n          jump\t// in\n        tag_30:\n            /* \"#utility.yul\":1261:1335   */\n          swap2\n          pop\n            /* \"#utility.yul\":1216:1345   */\n          pop\n            /* \"#utility.yul\":845:1352   */\n          swap3\n          pop\n          swap3\n          swap1\n          pop\n          jump\t// out\n            /* \"WillContract.sol\":1037:3119  contract WillContract {... */\n        tag_6:\n          dataSize(sub_0)\n          dup1\n          dataOffset(sub_0)\n          0x00\n          codecopy\n          0x00\n          return\n        stop\n\n        sub_0: assembly {\n                /* \"WillContract.sol\":1037:3119  contract WillContract {... */\n              mstore(0x40, 0x80)\n              jumpi(tag_1, lt(calldatasize, 0x04))\n              shr(0xe0, calldataload(0x00))\n              dup1\n              0x8da5cb5b\n              gt\n              tag_10\n              jumpi\n              dup1\n              0x8da5cb5b\n              eq\n              tag_6\n              jumpi\n              dup1\n              0x92c2bcb4\n              eq\n              tag_7\n              jumpi\n              dup1\n              0x9890220b\n              eq\n              tag_8\n              jumpi\n              dup1\n              0xd27440fd\n              eq\n              tag_9\n              jumpi\n              jump(tag_2)\n            tag_10:\n              dup1\n              0x3ccfd60b\n              eq\n              tag_3\n              jumpi\n              dup1\n              0x5c36b186\n              eq\n              tag_4\n              jumpi\n              dup1\n              0x66d003ac\n              eq\n              tag_5\n              jumpi\n              jump(tag_2)\n            tag_1:\n              jumpi(tag_2, calldatasize)\n              stop\n            tag_2:\n              revert(0x00, 0x00)\n                /* \"WillContract.sol\":2211:2539  function withdraw() external onlyOwner {... */\n            tag_3:\n              callvalue\n              dup1\n              iszero\n              tag_13\n              jumpi\n              revert(0x00, 0x00)\n            tag_13:\n              pop\n              tag_14\n              tag_15\n              jump\t// in\n            tag_14:\n              stop\n                /* \"WillContract.sol\":2066:2205  function ping() external onlyOwner {... */\n            tag_4:\n              callvalue\n              dup1\n              iszero\n              tag_16\n              jumpi\n              revert(0x00, 0x00)\n            tag_16:\n              pop\n              tag_17\n              tag_18\n              jump\t// in\n            tag_17:\n              stop\n                /* \"WillContract.sol\":1091:1115  address public recipient */\n            tag_5:\n              callvalue\n              dup1\n              iszero\n              tag_19\n              jumpi\n              revert(0x00, 0x00)\n            tag_19:\n              pop\n              tag_20\n              tag_21\n              jump\t// in\n            tag_20:\n              mload(0x40)\n              tag_22\n              swap2\n              swap1\n              tag_23\n              jump\t// in\n            tag_22:\n              mload(0x40)\n              dup1\n              swap2\n              sub\n              swap1\n              return\n                /* \"WillContract.sol\":1065:1085  address public owner */\n            tag_6:\n              callvalue\n              dup1\n              iszero\n              tag_24\n              jumpi\n              revert(0x00, 0x00)\n            tag_24:\n              pop\n              tag_25\n              tag_26\n              jump\t// in\n            tag_25:\n              mload(0x40)\n              tag_27\n              swap2\n              swap1\n              tag_23\n              jump\t// in\n            tag_27:\n              mload(0x40)\n              dup1\n              swap2\n              sub\n              swap1\n              return\n                /* \"WillContract.sol\":1764:2060  function changeRecipient(address _newRecipient) external onlyOwner {... */\n            tag_7:\n              callvalue\n              dup1\n              iszero\n              tag_28\n              jumpi\n              revert(0x00, 0x00)\n            tag_28:\n              pop\n              tag_29\n              0x04\n              dup1\n              calldatasize\n              sub\n              dup2\n              add\n              swap1\n              tag_30\n              swap2\n              swap1\n              tag_31\n              jump\t// in\n            tag_30:\n              tag_32\n              jump\t// in\n            tag_29:\n              stop\n                /* \"WillContract.sol\":2545:3045  function drain() external {... */\n            tag_8:\n              callvalue\n              dup1\n              iszero\n              tag_33\n              jumpi\n              revert(0x00, 0x00)\n            tag_33:\n              pop\n              tag_34\n              tag_35\n              jump\t// in\n            tag_34:\n              stop\n                /* \"WillContract.sol\":1121:1153  uint256 public lastPingTimestamp */\n            tag_9:\n              callvalue\n              dup1\n              iszero\n              tag_36\n              jumpi\n              revert(0x00, 0x00)\n            tag_36:\n              pop\n              tag_37\n              tag_38\n              jump\t// in\n            tag_37:\n              mload(0x40)\n              tag_39\n              swap2\n              swap1\n              tag_40\n              jump\t// in\n            tag_39:\n              mload(0x40)\n              dup1\n              swap2\n              sub\n              swap1\n              return\n                /* \"WillContract.sol\":2211:2539  function withdraw() external onlyOwner {... */\n            tag_15:\n                /* \"WillContract.sol\":1708:1713  owner */\n              0x00\n              0x00\n              swap1\n              sload\n              swap1\n              0x0100\n              exp\n              swap1\n              div\n              0xffffffffffffffffffffffffffffffffffffffff\n              and\n                /* \"WillContract.sol\":1694:1713  msg.sender == owner */\n              0xffffffffffffffffffffffffffffffffffffffff\n              and\n                /* \"WillContract.sol\":1694:1704  msg.sender */\n              caller\n                /* \"WillContract.sol\":1694:1713  msg.sender == owner */\n              0xffffffffffffffffffffffffffffffffffffffff\n              and\n              eq\n                /* \"WillContract.sol\":1686:1740  require(msg.sender == owner, \"Not the contract owner\") */\n              tag_42\n              jumpi\n              mload(0x40)\n              0x08c379a000000000000000000000000000000000000000000000000000000000\n              dup2\n              mstore\n              0x04\n              add\n              tag_43\n              swap1\n              tag_44\n              jump\t// in\n            tag_43:\n              mload(0x40)\n              dup1\n              swap2\n              sub\n              swap1\n              revert\n            tag_42:\n                /* \"WillContract.sol\":2260:2283  uint256 contractBalance */\n              0x00\n                /* \"WillContract.sol\":2286:2307  address(this).balance */\n              selfbalance\n                /* \"WillContract.sol\":2260:2307  uint256 contractBalance = address(this).balance */\n              swap1\n              pop\n                /* \"WillContract.sol\":2343:2344  0 */\n              0x00\n                /* \"WillContract.sol\":2325:2340  contractBalance */\n              dup2\n                /* \"WillContract.sol\":2325:2344  contractBalance > 0 */\n              gt\n                /* \"WillContract.sol\":2317:2369  require(contractBalance > 0, \"No funds to withdraw\") */\n              tag_46\n              jumpi\n              mload(0x40)\n              0x08c379a000000000000000000000000000000000000000000000000000000000\n              dup2\n              mstore\n              0x04\n              add\n              tag_47\n              swap1\n              tag_48\n              jump\t// in\n            tag_47:\n              mload(0x40)\n              dup1\n              swap2\n              sub\n              swap1\n              revert\n            tag_46:\n                /* \"WillContract.sol\":2381:2393  bool success */\n              0x00\n                /* \"WillContract.sol\":2399:2404  owner */\n              0x00\n              0x00\n              swap1\n              sload\n              swap1\n              0x0100\n              exp\n              swap1\n              div\n              0xffffffffffffffffffffffffffffffffffffffff\n              and\n                /* \"WillContract.sol\":2399:2409  owner.call */\n              0xffffffffffffffffffffffffffffffffffffffff\n              and\n                /* \"WillContract.sol\":2417:2432  contractBalance */\n              dup3\n                /* \"WillContract.sol\":2399:2437  owner.call{value: contractBalance}(\"\") */\n              mload(0x40)\n              tag_49\n              swap1\n              tag_50\n              jump\t// in\n            tag_49:\n              0x00\n              mload(0x40)\n              dup1\n              dup4\n              sub\n              dup2\n              dup6\n              dup8\n              gas\n              call\n              swap3\n              pop\n              pop\n              pop\n              returndatasize\n              dup1\n              0x00\n              dup2\n              eq\n              tag_53\n              jumpi\n              mload(0x40)\n              swap2\n              pop\n              and(add(returndatasize, 0x3f), not(0x1f))\n              dup3\n              add\n              0x40\n              mstore\n              returndatasize\n              dup3\n              mstore\n              returndatasize\n              0x00\n              0x20\n              dup5\n              add\n              returndatacopy\n              jump(tag_52)\n            tag_53:\n              0x60\n              swap2\n              pop\n            tag_52:\n              pop\n                /* \"WillContract.sol\":2380:2437  (bool success, ) = owner.call{value: contractBalance}(\"\") */\n              pop\n              swap1\n              pop\n                /* \"WillContract.sol\":2455:2462  success */\n              dup1\n                /* \"WillContract.sol\":2447:2482  require(success, \"Transfer failed\") */\n              tag_54\n              jumpi\n              mload(0x40)\n              0x08c379a000000000000000000000000000000000000000000000000000000000\n              dup2\n              mstore\n              0x04\n              add\n              tag_55\n              swap1\n              tag_56\n              jump\t// in\n            tag_55:\n              mload(0x40)\n              dup1\n              swap2\n              sub\n              swap1\n              revert\n            tag_54:\n                /* \"WillContract.sol\":2509:2514  owner */\n              0x00\n              0x00\n              swap1\n              sload\n              swap1\n              0x0100\n              exp\n              swap1\n              div\n              0xffffffffffffffffffffffffffffffffffffffff\n              and\n                /* \"WillContract.sol\":2498:2532  Withdrawal(owner, contractBalance) */\n              0xffffffffffffffffffffffffffffffffffffffff\n              and\n              0x7fcf532c15f0a6db0bd6d0e038bea71d30d808c7d98cb3bf7268a95bf5081b65\n                /* \"WillContract.sol\":2516:2531  contractBalance */\n              dup4\n                /* \"WillContract.sol\":2498:2532  Withdrawal(owner, contractBalance) */\n              mload(0x40)\n              tag_57\n              swap2\n              swap1\n              tag_40\n              jump\t// in\n            tag_57:\n              mload(0x40)\n              dup1\n              swap2\n              sub\n              swap1\n              log2\n                /* \"WillContract.sol\":2250:2539  {... */\n              pop\n              pop\n                /* \"WillContract.sol\":2211:2539  function withdraw() external onlyOwner {... */\n              jump\t// out\n                /* \"WillContract.sol\":2066:2205  function ping() external onlyOwner {... */\n            tag_18:\n                /* \"WillContract.sol\":1708:1713  owner */\n              0x00\n              0x00\n              swap1\n              sload\n              swap1\n              0x0100\n              exp\n              swap1\n              div\n              0xffffffffffffffffffffffffffffffffffffffff\n              and\n                /* \"WillContract.sol\":1694:1713  msg.sender == owner */\n              0xffffffffffffffffffffffffffffffffffffffff\n              and\n                /* \"WillContract.sol\":1694:1704  msg.sender */\n              caller\n                /* \"WillContract.sol\":1694:1713  msg.sender == owner */\n              0xffffffffffffffffffffffffffffffffffffffff\n              and\n              eq\n                /* \"WillContract.sol\":1686:1740  require(msg.sender == owner, \"Not the contract owner\") */\n              tag_59\n              jumpi\n              mload(0x40)\n              0x08c379a000000000000000000000000000000000000000000000000000000000\n              dup2\n              mstore\n              0x04\n              add\n              tag_60\n              swap1\n              tag_44\n              jump\t// in\n            tag_60:\n              mload(0x40)\n              dup1\n              swap2\n              sub\n              swap1\n              revert\n            tag_59:\n                /* \"WillContract.sol\":2131:2146  block.timestamp */\n              timestamp\n                /* \"WillContract.sol\":2111:2128  lastPingTimestamp */\n              0x02\n                /* \"WillContract.sol\":2111:2146  lastPingTimestamp = block.timestamp */\n              dup2\n              swap1\n              sstore\n              pop\n                /* \"WillContract.sol\":2168:2178  msg.sender */\n              caller\n                /* \"WillContract.sol\":2161:2198  Pinged(msg.sender, lastPingTimestamp) */\n              0xffffffffffffffffffffffffffffffffffffffff\n              and\n              0x78a327424158f99dcde9deeb550e97c0f1d53b23ebaec3ac54a53f58504b3c85\n                /* \"WillContract.sol\":2180:2197  lastPingTimestamp */\n              sload(0x02)\n                /* \"WillContract.sol\":2161:2198  Pinged(msg.sender, lastPingTimestamp) */\n              mload(0x40)\n              tag_62\n              swap2\n              swap1\n              tag_40\n              jump\t// in\n            tag_62:\n              mload(0x40)\n              dup1\n              swap2\n              sub\n              swap1\n              log2\n                /* \"WillContract.sol\":2066:2205  function ping() external onlyOwner {... */\n              jump\t// out\n                /* \"WillContract.sol\":1091:1115  address public recipient */\n            tag_21:\n              0x01\n              0x00\n              swap1\n              sload\n              swap1\n              0x0100\n              exp\n              swap1\n              div\n              0xffffffffffffffffffffffffffffffffffffffff\n              and\n              dup2\n              jump\t// out\n                /* \"WillContract.sol\":1065:1085  address public owner */\n            tag_26:\n              0x00\n              0x00\n              swap1\n              sload\n              swap1\n              0x0100\n              exp\n              swap1\n              div\n              0xffffffffffffffffffffffffffffffffffffffff\n              and\n              dup2\n              jump\t// out\n                /* \"WillContract.sol\":1764:2060  function changeRecipient(address _newRecipient) external onlyOwner {... */\n            tag_32:\n                /* \"WillContract.sol\":1708:1713  owner */\n              0x00\n              0x00\n              swap1\n              sload\n              swap1\n              0x0100\n              exp\n              swap1\n              div\n              0xffffffffffffffffffffffffffffffffffffffff\n              and\n                /* \"WillContract.sol\":1694:1713  msg.sender == owner */\n              0xffffffffffffffffffffffffffffffffffffffff\n              and\n                /* \"WillContract.sol\":1694:1704  msg.sender */\n              caller\n                /* \"WillContract.sol\":1694:1713  msg.sender == owner */\n              0xffffffffffffffffffffffffffffffffffffffff\n              and\n              eq\n                /* \"WillContract.sol\":1686:1740  require(msg.sender == owner, \"Not the contract owner\") */\n              tag_64\n              jumpi\n              mload(0x40)\n              0x08c379a000000000000000000000000000000000000000000000000000000000\n              dup2\n              mstore\n              0x04\n              add\n              tag_65\n              swap1\n              tag_44\n              jump\t// in\n            tag_65:\n              mload(0x40)\n              dup1\n              swap2\n              sub\n              swap1\n              revert\n            tag_64:\n                /* \"WillContract.sol\":1874:1875  0 */\n              0x00\n                /* \"WillContract.sol\":1849:1876  _newRecipient != address(0) */\n              0xffffffffffffffffffffffffffffffffffffffff\n              and\n                /* \"WillContract.sol\":1849:1862  _newRecipient */\n              dup2\n                /* \"WillContract.sol\":1849:1876  _newRecipient != address(0) */\n              0xffffffffffffffffffffffffffffffffffffffff\n              and\n              sub\n                /* \"WillContract.sol\":1841:1906  require(_newRecipient != address(0), \"Invalid recipient address\") */\n              tag_67\n              jumpi\n              mload(0x40)\n              0x08c379a000000000000000000000000000000000000000000000000000000000\n              dup2\n              mstore\n              0x04\n              add\n              tag_68\n              swap1\n              tag_69\n              jump\t// in\n            tag_68:\n              mload(0x40)\n              dup1\n              swap2\n              sub\n              swap1\n              revert\n            tag_67:\n                /* \"WillContract.sol\":1916:1941  address previousRecipient */\n              0x00\n                /* \"WillContract.sol\":1944:1953  recipient */\n              0x01\n              0x00\n              swap1\n              sload\n              swap1\n              0x0100\n              exp\n              swap1\n              div\n              0xffffffffffffffffffffffffffffffffffffffff\n              and\n                /* \"WillContract.sol\":1916:1953  address previousRecipient = recipient */\n              swap1\n              pop\n                /* \"WillContract.sol\":1975:1988  _newRecipient */\n              dup2\n                /* \"WillContract.sol\":1963:1972  recipient */\n              0x01\n              0x00\n                /* \"WillContract.sol\":1963:1988  recipient = _newRecipient */\n              0x0100\n              exp\n              dup2\n              sload\n              dup2\n              0xffffffffffffffffffffffffffffffffffffffff\n              mul\n              not\n              and\n              swap1\n              dup4\n              0xffffffffffffffffffffffffffffffffffffffff\n              and\n              mul\n              or\n              swap1\n              sstore\n              pop\n                /* \"WillContract.sol\":2039:2052  _newRecipient */\n              dup2\n                /* \"WillContract.sol\":2003:2053  RecipientChanged(previousRecipient, _newRecipient) */\n              0xffffffffffffffffffffffffffffffffffffffff\n              and\n                /* \"WillContract.sol\":2020:2037  previousRecipient */\n              dup2\n                /* \"WillContract.sol\":2003:2053  RecipientChanged(previousRecipient, _newRecipient) */\n              0xffffffffffffffffffffffffffffffffffffffff\n              and\n              0x4a9d367b1b0cd787be10021f1c55cb49c9f2302334e6df35c9621005eb222514\n              mload(0x40)\n              mload(0x40)\n              dup1\n              swap2\n              sub\n              swap1\n              log3\n                /* \"WillContract.sol\":1831:2060  {... */\n              pop\n                /* \"WillContract.sol\":1764:2060  function changeRecipient(address _newRecipient) external onlyOwner {... */\n              pop\n              jump\t// out\n                /* \"WillContract.sol\":2545:3045  function drain() external {... */\n            tag_35:\n                /* \"WillContract.sol\":2603:2612  recipient */\n              0x01\n              0x00\n              swap1\n              sload\n              swap1\n              0x0100\n              exp\n              swap1\n              div\n              0xffffffffffffffffffffffffffffffffffffffff\n              and\n                /* \"WillContract.sol\":2589:2612  msg.sender == recipient */\n              0xffffffffffffffffffffffffffffffffffffffff\n              and\n                /* \"WillContract.sol\":2589:2599  msg.sender */\n              caller\n                /* \"WillContract.sol\":2589:2612  msg.sender == recipient */\n              0xffffffffffffffffffffffffffffffffffffffff\n              and\n              eq\n                /* \"WillContract.sol\":2581:2641  require(msg.sender == recipient, \"Only recipient can drain\") */\n              tag_71\n              jumpi\n              mload(0x40)\n              0x08c379a000000000000000000000000000000000000000000000000000000000\n              dup2\n              mstore\n              0x04\n              add\n              tag_72\n              swap1\n              tag_73\n              jump\t// in\n            tag_72:\n              mload(0x40)\n              dup1\n              swap2\n              sub\n              swap1\n              revert\n            tag_71:\n                /* \"WillContract.sol\":1196:1204  365 days */\n              0x01e13380\n                /* \"WillContract.sol\":2677:2694  lastPingTimestamp */\n              sload(0x02)\n                /* \"WillContract.sol\":2677:2714  lastPingTimestamp + INACTIVITY_PERIOD */\n              tag_74\n              swap2\n              swap1\n              tag_75\n              jump\t// in\n            tag_74:\n                /* \"WillContract.sol\":2659:2674  block.timestamp */\n              timestamp\n                /* \"WillContract.sol\":2659:2714  block.timestamp > lastPingTimestamp + INACTIVITY_PERIOD */\n              gt\n                /* \"WillContract.sol\":2651:2740  require(block.timestamp > lastPingTimestamp + INACTIVITY_PERIOD, \"Owner is still active\") */\n              tag_76\n              jumpi\n              mload(0x40)\n              0x08c379a000000000000000000000000000000000000000000000000000000000\n              dup2\n              mstore\n              0x04\n              add\n              tag_77\n              swap1\n              tag_78\n              jump\t// in\n            tag_77:\n              mload(0x40)\n              dup1\n              swap2\n              sub\n              swap1\n              revert\n            tag_76:\n                /* \"WillContract.sol\":2759:2782  uint256 contractBalance */\n              0x00\n                /* \"WillContract.sol\":2785:2806  address(this).balance */\n              selfbalance\n                /* \"WillContract.sol\":2759:2806  uint256 contractBalance = address(this).balance */\n              swap1\n              pop\n                /* \"WillContract.sol\":2842:2843  0 */\n              0x00\n                /* \"WillContract.sol\":2824:2839  contractBalance */\n              dup2\n                /* \"WillContract.sol\":2824:2843  contractBalance > 0 */\n              gt\n                /* \"WillContract.sol\":2816:2865  require(contractBalance > 0, \"No funds to drain\") */\n              tag_79\n              jumpi\n              mload(0x40)\n              0x08c379a000000000000000000000000000000000000000000000000000000000\n              dup2\n              mstore\n              0x04\n              add\n              tag_80\n              swap1\n              tag_81\n              jump\t// in\n            tag_80:\n              mload(0x40)\n              dup1\n              swap2\n              sub\n              swap1\n              revert\n            tag_79:\n                /* \"WillContract.sol\":2877:2889  bool success */\n              0x00\n                /* \"WillContract.sol\":2895:2904  recipient */\n              0x01\n              0x00\n              swap1\n              sload\n              swap1\n              0x0100\n              exp\n              swap1\n              div\n              0xffffffffffffffffffffffffffffffffffffffff\n              and\n                /* \"WillContract.sol\":2895:2909  recipient.call */\n              0xffffffffffffffffffffffffffffffffffffffff\n              and\n                /* \"WillContract.sol\":2917:2932  contractBalance */\n              dup3\n                /* \"WillContract.sol\":2895:2937  recipient.call{value: contractBalance}(\"\") */\n              mload(0x40)\n              tag_82\n              swap1\n              tag_50\n              jump\t// in\n            tag_82:\n              0x00\n              mload(0x40)\n              dup1\n              dup4\n              sub\n              dup2\n              dup6\n              dup8\n              gas\n              call\n              swap3\n              pop\n              pop\n              pop\n              returndatasize\n              dup1\n              0x00\n              dup2\n              eq\n              tag_85\n              jumpi\n              mload(0x40)\n              swap2\n              pop\n              and(add(returndatasize, 0x3f), not(0x1f))\n              dup3\n              add\n              0x40\n              mstore\n              returndatasize\n              dup3\n              mstore\n              returndatasize\n              0x00\n              0x20\n              dup5\n              add\n              returndatacopy\n              jump(tag_84)\n            tag_85:\n              0x60\n              swap2\n              pop\n            tag_84:\n              pop\n                /* \"WillContract.sol\":2876:2937  (bool success, ) = recipient.call{value: contractBalance}(\"\") */\n              pop\n              swap1\n              pop\n                /* \"WillContract.sol\":2955:2962  success */\n              dup1\n                /* \"WillContract.sol\":2947:2982  require(success, \"Transfer failed\") */\n              tag_86\n              jumpi\n              mload(0x40)\n              0x08c379a000000000000000000000000000000000000000000000000000000000\n              dup2\n              mstore\n              0x04\n              add\n              tag_87\n              swap1\n              tag_56\n              jump\t// in\n            tag_87:\n              mload(0x40)\n              dup1\n              swap2\n              sub\n              swap1\n              revert\n            tag_86:\n                /* \"WillContract.sol\":3011:3020  recipient */\n              0x01\n              0x00\n              swap1\n              sload\n              swap1\n              0x0100\n              exp\n              swap1\n              div\n              0xffffffffffffffffffffffffffffffffffffffff\n              and\n                /* \"WillContract.sol\":2998:3038  FundsDrained(recipient, contractBalance) */\n              0xffffffffffffffffffffffffffffffffffffffff\n              and\n              0x01299bd5af84e23c4c82c1d4eddf2a9c00e70b8b886076d06cdbe7c6fc80a87d\n                /* \"WillContract.sol\":3022:3037  contractBalance */\n              dup4\n                /* \"WillContract.sol\":2998:3038  FundsDrained(recipient, contractBalance) */\n              mload(0x40)\n              tag_88\n              swap2\n              swap1\n              tag_40\n              jump\t// in\n            tag_88:\n              mload(0x40)\n              dup1\n              swap2\n              sub\n              swap1\n              log2\n                /* \"WillContract.sol\":2571:3045  {... */\n              pop\n              pop\n                /* \"WillContract.sol\":2545:3045  function drain() external {... */\n              jump\t// out\n                /* \"WillContract.sol\":1121:1153  uint256 public lastPingTimestamp */\n            tag_38:\n              sload(0x02)\n              dup2\n              jump\t// out\n                /* \"#utility.yul\":7:133   */\n            tag_89:\n                /* \"#utility.yul\":44:51   */\n              0x00\n                /* \"#utility.yul\":84:126   */\n              0xffffffffffffffffffffffffffffffffffffffff\n                /* \"#utility.yul\":77:82   */\n              dup3\n                /* \"#utility.yul\":73:127   */\n              and\n                /* \"#utility.yul\":62:127   */\n              swap1\n              pop\n                /* \"#utility.yul\":7:133   */\n              swap2\n              swap1\n              pop\n              jump\t// out\n                /* \"#utility.yul\":139:235   */\n            tag_90:\n                /* \"#utility.yul\":176:183   */\n              0x00\n                /* \"#utility.yul\":205:229   */\n              tag_121\n                /* \"#utility.yul\":223:228   */\n              dup3\n                /* \"#utility.yul\":205:229   */\n              tag_89\n              jump\t// in\n            tag_121:\n                /* \"#utility.yul\":194:229   */\n              swap1\n              pop\n                /* \"#utility.yul\":139:235   */\n              swap2\n              swap1\n              pop\n              jump\t// out\n                /* \"#utility.yul\":241:359   */\n            tag_91:\n                /* \"#utility.yul\":328:352   */\n              tag_123\n                /* \"#utility.yul\":346:351   */\n              dup2\n                /* \"#utility.yul\":328:352   */\n              tag_90\n              jump\t// in\n            tag_123:\n                /* \"#utility.yul\":323:326   */\n              dup3\n                /* \"#utility.yul\":316:353   */\n              mstore\n                /* \"#utility.yul\":241:359   */\n              pop\n              pop\n              jump\t// out\n                /* \"#utility.yul\":365:587   */\n            tag_23:\n                /* \"#utility.yul\":458:462   */\n              0x00\n                /* \"#utility.yul\":496:498   */\n              0x20\n                /* \"#utility.yul\":485:494   */\n              dup3\n                /* \"#utility.yul\":481:499   */\n              add\n                /* \"#utility.yul\":473:499   */\n              swap1\n              pop\n                /* \"#utility.yul\":509:580   */\n              tag_125\n                /* \"#utility.yul\":577:578   */\n              0x00\n                /* \"#utility.yul\":566:575   */\n              dup4\n                /* \"#utility.yul\":562:579   */\n              add\n                /* \"#utility.yul\":553:559   */\n              dup5\n                /* \"#utility.yul\":509:580   */\n              tag_91\n              jump\t// in\n            tag_125:\n                /* \"#utility.yul\":365:587   */\n              swap3\n              swap2\n              pop\n              pop\n              jump\t// out\n                /* \"#utility.yul\":674:791   */\n            tag_93:\n                /* \"#utility.yul\":783:784   */\n              0x00\n                /* \"#utility.yul\":780:781   */\n              0x00\n                /* \"#utility.yul\":773:785   */\n              revert\n                /* \"#utility.yul\":920:1042   */\n            tag_95:\n                /* \"#utility.yul\":993:1017   */\n              tag_130\n                /* \"#utility.yul\":1011:1016   */\n              dup2\n                /* \"#utility.yul\":993:1017   */\n              tag_90\n              jump\t// in\n            tag_130:\n                /* \"#utility.yul\":986:991   */\n              dup2\n                /* \"#utility.yul\":983:1018   */\n              eq\n                /* \"#utility.yul\":973:1036   */\n              tag_131\n              jumpi\n                /* \"#utility.yul\":1032:1033   */\n              0x00\n                /* \"#utility.yul\":1029:1030   */\n              0x00\n                /* \"#utility.yul\":1022:1034   */\n              revert\n                /* \"#utility.yul\":973:1036   */\n            tag_131:\n                /* \"#utility.yul\":920:1042   */\n              pop\n              jump\t// out\n                /* \"#utility.yul\":1048:1187   */\n            tag_96:\n                /* \"#utility.yul\":1094:1099   */\n              0x00\n                /* \"#utility.yul\":1132:1138   */\n              dup2\n                /* \"#utility.yul\":1119:1139   */\n              calldataload\n                /* \"#utility.yul\":1110:1139   */\n              swap1\n              pop\n                /* \"#utility.yul\":1148:1181   */\n              tag_133\n                /* \"#utility.yul\":1175:1180   */\n              dup2\n                /* \"#utility.yul\":1148:1181   */\n              tag_95\n              jump\t// in\n            tag_133:\n                /* \"#utility.yul\":1048:1187   */\n              swap3\n              swap2\n              pop\n              pop\n              jump\t// out\n                /* \"#utility.yul\":1193:1522   */\n            tag_31:\n                /* \"#utility.yul\":1252:1258   */\n              0x00\n                /* \"#utility.yul\":1301:1303   */\n              0x20\n                /* \"#utility.yul\":1289:1298   */\n              dup3\n                /* \"#utility.yul\":1280:1287   */\n              dup5\n                /* \"#utility.yul\":1276:1299   */\n              sub\n                /* \"#utility.yul\":1272:1304   */\n              slt\n                /* \"#utility.yul\":1269:1388   */\n              iszero\n              tag_135\n              jumpi\n                /* \"#utility.yul\":1307:1386   */\n              tag_136\n              tag_93\n              jump\t// in\n            tag_136:\n                /* \"#utility.yul\":1269:1388   */\n            tag_135:\n                /* \"#utility.yul\":1427:1428   */\n              0x00\n                /* \"#utility.yul\":1452:1505   */\n              tag_137\n                /* \"#utility.yul\":1497:1504   */\n              dup5\n                /* \"#utility.yul\":1488:1494   */\n              dup3\n                /* \"#utility.yul\":1477:1486   */\n              dup6\n                /* \"#utility.yul\":1473:1495   */\n              add\n                /* \"#utility.yul\":1452:1505   */\n              tag_96\n              jump\t// in\n            tag_137:\n                /* \"#utility.yul\":1442:1505   */\n              swap2\n              pop\n                /* \"#utility.yul\":1398:1515   */\n              pop\n                /* \"#utility.yul\":1193:1522   */\n              swap3\n              swap2\n              pop\n              pop\n              jump\t// out\n                /* \"#utility.yul\":1528:1605   */\n            tag_97:\n                /* \"#utility.yul\":1565:1572   */\n              0x00\n                /* \"#utility.yul\":1594:1599   */\n              dup2\n                /* \"#utility.yul\":1583:1599   */\n              swap1\n              pop\n                /* \"#utility.yul\":1528:1605   */\n              swap2\n              swap1\n              pop\n              jump\t// out\n                /* \"#utility.yul\":1611:1729   */\n            tag_98:\n                /* \"#utility.yul\":1698:1722   */\n              tag_140\n                /* \"#utility.yul\":1716:1721   */\n              dup2\n                /* \"#utility.yul\":1698:1722   */\n              tag_97\n              jump\t// in\n            tag_140:\n                /* \"#utility.yul\":1693:1696   */\n              dup3\n                /* \"#utility.yul\":1686:1723   */\n              mstore\n                /* \"#utility.yul\":1611:1729   */\n              pop\n              pop\n              jump\t// out\n                /* \"#utility.yul\":1735:1957   */\n            tag_40:\n                /* \"#utility.yul\":1828:1832   */\n              0x00\n                /* \"#utility.yul\":1866:1868   */\n              0x20\n                /* \"#utility.yul\":1855:1864   */\n              dup3\n                /* \"#utility.yul\":1851:1869   */\n              add\n                /* \"#utility.yul\":1843:1869   */\n              swap1\n              pop\n                /* \"#utility.yul\":1879:1950   */\n              tag_142\n                /* \"#utility.yul\":1947:1948   */\n              0x00\n                /* \"#utility.yul\":1936:1945   */\n              dup4\n                /* \"#utility.yul\":1932:1949   */\n              add\n                /* \"#utility.yul\":1923:1929   */\n              dup5\n                /* \"#utility.yul\":1879:1950   */\n              tag_98\n              jump\t// in\n            tag_142:\n                /* \"#utility.yul\":1735:1957   */\n              swap3\n              swap2\n              pop\n              pop\n              jump\t// out\n                /* \"#utility.yul\":1963:2132   */\n            tag_99:\n                /* \"#utility.yul\":2047:2058   */\n              0x00\n                /* \"#utility.yul\":2081:2087   */\n              dup3\n                /* \"#utility.yul\":2076:2079   */\n              dup3\n                /* \"#utility.yul\":2069:2088   */\n              mstore\n                /* \"#utility.yul\":2121:2125   */\n              0x20\n                /* \"#utility.yul\":2116:2119   */\n              dup3\n                /* \"#utility.yul\":2112:2126   */\n              add\n                /* \"#utility.yul\":2097:2126   */\n              swap1\n              pop\n                /* \"#utility.yul\":1963:2132   */\n              swap3\n              swap2\n              pop\n              pop\n              jump\t// out\n                /* \"#utility.yul\":2138:2310   */\n            tag_100:\n                /* \"#utility.yul\":2278:2302   */\n              0x4e6f742074686520636f6e7472616374206f776e657200000000000000000000\n                /* \"#utility.yul\":2274:2275   */\n              0x00\n                /* \"#utility.yul\":2266:2272   */\n              dup3\n                /* \"#utility.yul\":2262:2276   */\n              add\n                /* \"#utility.yul\":2255:2303   */\n              mstore\n                /* \"#utility.yul\":2138:2310   */\n              pop\n              jump\t// out\n                /* \"#utility.yul\":2316:2682   */\n            tag_101:\n                /* \"#utility.yul\":2458:2461   */\n              0x00\n                /* \"#utility.yul\":2479:2546   */\n              tag_146\n                /* \"#utility.yul\":2543:2545   */\n              0x16\n                /* \"#utility.yul\":2538:2541   */\n              dup4\n                /* \"#utility.yul\":2479:2546   */\n              tag_99\n              jump\t// in\n            tag_146:\n                /* \"#utility.yul\":2472:2546   */\n              swap2\n              pop\n                /* \"#utility.yul\":2555:2648   */\n              tag_147\n                /* \"#utility.yul\":2644:2647   */\n              dup3\n                /* \"#utility.yul\":2555:2648   */\n              tag_100\n              jump\t// in\n            tag_147:\n                /* \"#utility.yul\":2673:2675   */\n              0x20\n                /* \"#utility.yul\":2668:2671   */\n              dup3\n                /* \"#utility.yul\":2664:2676   */\n              add\n                /* \"#utility.yul\":2657:2676   */\n              swap1\n              pop\n                /* \"#utility.yul\":2316:2682   */\n              swap2\n              swap1\n              pop\n              jump\t// out\n                /* \"#utility.yul\":2688:3107   */\n            tag_44:\n                /* \"#utility.yul\":2854:2858   */\n              0x00\n                /* \"#utility.yul\":2892:2894   */\n              0x20\n                /* \"#utility.yul\":2881:2890   */\n              dup3\n                /* \"#utility.yul\":2877:2895   */\n              add\n                /* \"#utility.yul\":2869:2895   */\n              swap1\n              pop\n                /* \"#utility.yul\":2941:2950   */\n              dup2\n                /* \"#utility.yul\":2935:2939   */\n              dup2\n                /* \"#utility.yul\":2931:2951   */\n              sub\n                /* \"#utility.yul\":2927:2928   */\n              0x00\n                /* \"#utility.yul\":2916:2925   */\n              dup4\n                /* \"#utility.yul\":2912:2929   */\n              add\n                /* \"#utility.yul\":2905:2952   */\n              mstore\n                /* \"#utility.yul\":2969:3100   */\n              tag_149\n                /* \"#utility.yul\":3095:3099   */\n              dup2\n                /* \"#utility.yul\":2969:3100   */\n              tag_101\n              jump\t// in\n            tag_149:\n                /* \"#utility.yul\":2961:3100   */\n              swap1\n              pop\n                /* \"#utility.yul\":2688:3107   */\n              swap2\n              swap1\n              pop\n              jump\t// out\n                /* \"#utility.yul\":3113:3283   */\n            tag_102:\n                /* \"#utility.yul\":3253:3275   */\n              0x4e6f2066756e647320746f207769746864726177000000000000000000000000\n                /* \"#utility.yul\":3249:3250   */\n              0x00\n                /* \"#utility.yul\":3241:3247   */\n              dup3\n                /* \"#utility.yul\":3237:3251   */\n              add\n                /* \"#utility.yul\":3230:3276   */\n              mstore\n                /* \"#utility.yul\":3113:3283   */\n              pop\n              jump\t// out\n                /* \"#utility.yul\":3289:3655   */\n            tag_103:\n                /* \"#utility.yul\":3431:3434   */\n              0x00\n                /* \"#utility.yul\":3452:3519   */\n              tag_152\n                /* \"#utility.yul\":3516:3518   */\n              0x14\n                /* \"#utility.yul\":3511:3514   */\n              dup4\n                /* \"#utility.yul\":3452:3519   */\n              tag_99\n              jump\t// in\n            tag_152:\n                /* \"#utility.yul\":3445:3519   */\n              swap2\n              pop\n                /* \"#utility.yul\":3528:3621   */\n              tag_153\n                /* \"#utility.yul\":3617:3620   */\n              dup3\n                /* \"#utility.yul\":3528:3621   */\n              tag_102\n              jump\t// in\n            tag_153:\n                /* \"#utility.yul\":3646:3648   */\n              0x20\n                /* \"#utility.yul\":3641:3644   */\n              dup3\n                /* \"#utility.yul\":3637:3649   */\n              add\n                /* \"#utility.yul\":3630:3649   */\n              swap1\n              pop\n                /* \"#utility.yul\":3289:3655   */\n              swap2\n              swap1\n              pop\n              jump\t// out\n                /* \"#utility.yul\":3661:4080   */\n            tag_48:\n                /* \"#utility.yul\":3827:3831   */\n              0x00\n                /* \"#utility.yul\":3865:3867   */\n              0x20\n                /* \"#utility.yul\":3854:3863   */\n              dup3\n                /* \"#utility.yul\":3850:3868   */\n              add\n                /* \"#utility.yul\":3842:3868   */\n              swap1\n              pop\n                /* \"#utility.yul\":3914:3923   */\n              dup2\n                /* \"#utility.yul\":3908:3912   */\n              dup2\n                /* \"#utility.yul\":3904:3924   */\n              sub\n                /* \"#utility.yul\":3900:3901   */\n              0x00\n                /* \"#utility.yul\":3889:3898   */\n              dup4\n                /* \"#utility.yul\":3885:3902   */\n              add\n                /* \"#utility.yul\":3878:3925   */\n              mstore\n                /* \"#utility.yul\":3942:4073   */\n              tag_155\n                /* \"#utility.yul\":4068:4072   */\n              dup2\n                /* \"#utility.yul\":3942:4073   */\n              tag_103\n              jump\t// in\n            tag_155:\n                /* \"#utility.yul\":3934:4073   */\n              swap1\n              pop\n                /* \"#utility.yul\":3661:4080   */\n              swap2\n              swap1\n              pop\n              jump\t// out\n                /* \"#utility.yul\":4086:4233   */\n            tag_104:\n                /* \"#utility.yul\":4187:4198   */\n              0x00\n                /* \"#utility.yul\":4224:4227   */\n              dup2\n                /* \"#utility.yul\":4209:4227   */\n              swap1\n              pop\n                /* \"#utility.yul\":4086:4233   */\n              swap3\n              swap2\n              pop\n              pop\n              jump\t// out\n                /* \"#utility.yul\":4239:4353   */\n            tag_105:\n              pop\n              jump\t// out\n                /* \"#utility.yul\":4359:4757   */\n            tag_106:\n                /* \"#utility.yul\":4518:4521   */\n              0x00\n                /* \"#utility.yul\":4539:4622   */\n              tag_159\n                /* \"#utility.yul\":4620:4621   */\n              0x00\n                /* \"#utility.yul\":4615:4618   */\n              dup4\n                /* \"#utility.yul\":4539:4622   */\n              tag_104\n              jump\t// in\n            tag_159:\n                /* \"#utility.yul\":4532:4622   */\n              swap2\n              pop\n                /* \"#utility.yul\":4631:4724   */\n              tag_160\n                /* \"#utility.yul\":4720:4723   */\n              dup3\n                /* \"#utility.yul\":4631:4724   */\n              tag_105\n              jump\t// in\n            tag_160:\n                /* \"#utility.yul\":4749:4750   */\n              0x00\n                /* \"#utility.yul\":4744:4747   */\n              dup3\n                /* \"#utility.yul\":4740:4751   */\n              add\n                /* \"#utility.yul\":4733:4751   */\n              swap1\n              pop\n                /* \"#utility.yul\":4359:4757   */\n              swap2\n              swap1\n              pop\n              jump\t// out\n                /* \"#utility.yul\":4763:5142   */\n            tag_50:\n                /* \"#utility.yul\":4947:4950   */\n              0x00\n                /* \"#utility.yul\":4969:5116   */\n              tag_162\n                /* \"#utility.yul\":5112:5115   */\n              dup3\n                /* \"#utility.yul\":4969:5116   */\n              tag_106\n              jump\t// in\n            tag_162:\n                /* \"#utility.yul\":4962:5116   */\n              swap2\n              pop\n                /* \"#utility.yul\":5133:5136   */\n              dup2\n                /* \"#utility.yul\":5126:5136   */\n              swap1\n              pop\n                /* \"#utility.yul\":4763:5142   */\n              swap2\n              swap1\n              pop\n              jump\t// out\n                /* \"#utility.yul\":5148:5313   */\n            tag_107:\n                /* \"#utility.yul\":5288:5305   */\n              0x5472616e73666572206661696c65640000000000000000000000000000000000\n                /* \"#utility.yul\":5284:5285   */\n              0x00\n                /* \"#utility.yul\":5276:5282   */\n              dup3\n                /* \"#utility.yul\":5272:5286   */\n              add\n                /* \"#utility.yul\":5265:5306   */\n              mstore\n                /* \"#utility.yul\":5148:5313   */\n              pop\n              jump\t// out\n                /* \"#utility.yul\":5319:5685   */\n            tag_108:\n                /* \"#utility.yul\":5461:5464   */\n              0x00\n                /* \"#utility.yul\":5482:5549   */\n              tag_165\n                /* \"#utility.yul\":5546:5548   */\n              0x0f\n                /* \"#utility.yul\":5541:5544   */\n              dup4\n                /* \"#utility.yul\":5482:5549   */\n              tag_99\n              jump\t// in\n            tag_165:\n                /* \"#utility.yul\":5475:5549   */\n              swap2\n              pop\n                /* \"#utility.yul\":5558:5651   */\n              tag_166\n                /* \"#utility.yul\":5647:5650   */\n              dup3\n                /* \"#utility.yul\":5558:5651   */\n              tag_107\n              jump\t// in\n            tag_166:\n                /* \"#utility.yul\":5676:5678   */\n              0x20\n                /* \"#utility.yul\":5671:5674   */\n              dup3\n                /* \"#utility.yul\":5667:5679   */\n              add\n                /* \"#utility.yul\":5660:5679   */\n              swap1\n              pop\n                /* \"#utility.yul\":5319:5685   */\n              swap2\n              swap1\n              pop\n              jump\t// out\n                /* \"#utility.yul\":5691:6110   */\n            tag_56:\n                /* \"#utility.yul\":5857:5861   */\n              0x00\n                /* \"#utility.yul\":5895:5897   */\n              0x20\n                /* \"#utility.yul\":5884:5893   */\n              dup3\n                /* \"#utility.yul\":5880:5898   */\n              add\n                /* \"#utility.yul\":5872:5898   */\n              swap1\n              pop\n                /* \"#utility.yul\":5944:5953   */\n              dup2\n                /* \"#utility.yul\":5938:5942   */\n              dup2\n                /* \"#utility.yul\":5934:5954   */\n              sub\n                /* \"#utility.yul\":5930:5931   */\n              0x00\n                /* \"#utility.yul\":5919:5928   */\n              dup4\n                /* \"#utility.yul\":5915:5932   */\n              add\n                /* \"#utility.yul\":5908:5955   */\n              mstore\n                /* \"#utility.yul\":5972:6103   */\n              tag_168\n                /* \"#utility.yul\":6098:6102   */\n              dup2\n                /* \"#utility.yul\":5972:6103   */\n              tag_108\n              jump\t// in\n            tag_168:\n                /* \"#utility.yul\":5964:6103   */\n              swap1\n              pop\n                /* \"#utility.yul\":5691:6110   */\n              swap2\n              swap1\n              pop\n              jump\t// out\n                /* \"#utility.yul\":6116:6291   */\n            tag_109:\n                /* \"#utility.yul\":6256:6283   */\n              0x496e76616c696420726563697069656e74206164647265737300000000000000\n                /* \"#utility.yul\":6252:6253   */\n              0x00\n                /* \"#utility.yul\":6244:6250   */\n              dup3\n                /* \"#utility.yul\":6240:6254   */\n              add\n                /* \"#utility.yul\":6233:6284   */\n              mstore\n                /* \"#utility.yul\":6116:6291   */\n              pop\n              jump\t// out\n                /* \"#utility.yul\":6297:6663   */\n            tag_110:\n                /* \"#utility.yul\":6439:6442   */\n              0x00\n                /* \"#utility.yul\":6460:6527   */\n              tag_171\n                /* \"#utility.yul\":6524:6526   */\n              0x19\n                /* \"#utility.yul\":6519:6522   */\n              dup4\n                /* \"#utility.yul\":6460:6527   */\n              tag_99\n              jump\t// in\n            tag_171:\n                /* \"#utility.yul\":6453:6527   */\n              swap2\n              pop\n                /* \"#utility.yul\":6536:6629   */\n              tag_172\n                /* \"#utility.yul\":6625:6628   */\n              dup3\n                /* \"#utility.yul\":6536:6629   */\n              tag_109\n              jump\t// in\n            tag_172:\n                /* \"#utility.yul\":6654:6656   */\n              0x20\n                /* \"#utility.yul\":6649:6652   */\n              dup3\n                /* \"#utility.yul\":6645:6657   */\n              add\n                /* \"#utility.yul\":6638:6657   */\n              swap1\n              pop\n                /* \"#utility.yul\":6297:6663   */\n              swap2\n              swap1\n              pop\n              jump\t// out\n                /* \"#utility.yul\":6669:7088   */\n            tag_69:\n                /* \"#utility.yul\":6835:6839   */\n              0x00\n                /* \"#utility.yul\":6873:6875   */\n              0x20\n                /* \"#utility.yul\":6862:6871   */\n              dup3\n                /* \"#utility.yul\":6858:6876   */\n              add\n                /* \"#utility.yul\":6850:6876   */\n              swap1\n              pop\n                /* \"#utility.yul\":6922:6931   */\n              dup2\n                /* \"#utility.yul\":6916:6920   */\n              dup2\n                /* \"#utility.yul\":6912:6932   */\n              sub\n                /* \"#utility.yul\":6908:6909   */\n              0x00\n                /* \"#utility.yul\":6897:6906   */\n              dup4\n                /* \"#utility.yul\":6893:6910   */\n              add\n                /* \"#utility.yul\":6886:6933   */\n              mstore\n                /* \"#utility.yul\":6950:7081   */\n              tag_174\n                /* \"#utility.yul\":7076:7080   */\n              dup2\n                /* \"#utility.yul\":6950:7081   */\n              tag_110\n              jump\t// in\n            tag_174:\n                /* \"#utility.yul\":6942:7081   */\n              swap1\n              pop\n                /* \"#utility.yul\":6669:7088   */\n              swap2\n              swap1\n              pop\n              jump\t// out\n                /* \"#utility.yul\":7094:7268   */\n            tag_111:\n                /* \"#utility.yul\":7234:7260   */\n              0x4f6e6c7920726563697069656e742063616e20647261696e0000000000000000\n                /* \"#utility.yul\":7230:7231   */\n              0x00\n                /* \"#utility.yul\":7222:7228   */\n              dup3\n                /* \"#utility.yul\":7218:7232   */\n              add\n                /* \"#utility.yul\":7211:7261   */\n              mstore\n                /* \"#utility.yul\":7094:7268   */\n              pop\n              jump\t// out\n                /* \"#utility.yul\":7274:7640   */\n            tag_112:\n                /* \"#utility.yul\":7416:7419   */\n              0x00\n                /* \"#utility.yul\":7437:7504   */\n              tag_177\n                /* \"#utility.yul\":7501:7503   */\n              0x18\n                /* \"#utility.yul\":7496:7499   */\n              dup4\n                /* \"#utility.yul\":7437:7504   */\n              tag_99\n              jump\t// in\n            tag_177:\n                /* \"#utility.yul\":7430:7504   */\n              swap2\n              pop\n                /* \"#utility.yul\":7513:7606   */\n              tag_178\n                /* \"#utility.yul\":7602:7605   */\n              dup3\n                /* \"#utility.yul\":7513:7606   */\n              tag_111\n              jump\t// in\n            tag_178:\n                /* \"#utility.yul\":7631:7633   */\n              0x20\n                /* \"#utility.yul\":7626:7629   */\n              dup3\n                /* \"#utility.yul\":7622:7634   */\n              add\n                /* \"#utility.yul\":7615:7634   */\n              swap1\n              pop\n                /* \"#utility.yul\":7274:7640   */\n              swap2\n              swap1\n              pop\n              jump\t// out\n                /* \"#utility.yul\":7646:8065   */\n            tag_73:\n                /* \"#utility.yul\":7812:7816   */\n              0x00\n                /* \"#utility.yul\":7850:7852   */\n              0x20\n                /* \"#utility.yul\":7839:7848   */\n              dup3\n                /* \"#utility.yul\":7835:7853   */\n              add\n                /* \"#utility.yul\":7827:7853   */\n              swap1\n              pop\n                /* \"#utility.yul\":7899:7908   */\n              dup2\n                /* \"#utility.yul\":7893:7897   */\n              dup2\n                /* \"#utility.yul\":7889:7909   */\n              sub\n                /* \"#utility.yul\":7885:7886   */\n              0x00\n                /* \"#utility.yul\":7874:7883   */\n              dup4\n                /* \"#utility.yul\":7870:7887   */\n              add\n                /* \"#utility.yul\":7863:7910   */\n              mstore\n                /* \"#utility.yul\":7927:8058   */\n              tag_180\n                /* \"#utility.yul\":8053:8057   */\n              dup2\n                /* \"#utility.yul\":7927:8058   */\n              tag_112\n              jump\t// in\n            tag_180:\n                /* \"#utility.yul\":7919:8058   */\n              swap1\n              pop\n                /* \"#utility.yul\":7646:8065   */\n              swap2\n              swap1\n              pop\n              jump\t// out\n                /* \"#utility.yul\":8071:8251   */\n            tag_113:\n                /* \"#utility.yul\":8119:8196   */\n              0x4e487b7100000000000000000000000000000000000000000000000000000000\n                /* \"#utility.yul\":8116:8117   */\n              0x00\n                /* \"#utility.yul\":8109:8197   */\n              mstore\n                /* \"#utility.yul\":8216:8220   */\n              0x11\n                /* \"#utility.yul\":8213:8214   */\n              0x04\n                /* \"#utility.yul\":8206:8221   */\n              mstore\n                /* \"#utility.yul\":8240:8244   */\n              0x24\n                /* \"#utility.yul\":8237:8238   */\n              0x00\n                /* \"#utility.yul\":8230:8245   */\n              revert\n                /* \"#utility.yul\":8257:8448   */\n            tag_75:\n                /* \"#utility.yul\":8297:8300   */\n              0x00\n                /* \"#utility.yul\":8316:8336   */\n              tag_183\n                /* \"#utility.yul\":8334:8335   */\n              dup3\n                /* \"#utility.yul\":8316:8336   */\n              tag_97\n              jump\t// in\n            tag_183:\n                /* \"#utility.yul\":8311:8336   */\n              swap2\n              pop\n                /* \"#utility.yul\":8350:8370   */\n              tag_184\n                /* \"#utility.yul\":8368:8369   */\n              dup4\n                /* \"#utility.yul\":8350:8370   */\n              tag_97\n              jump\t// in\n            tag_184:\n                /* \"#utility.yul\":8345:8370   */\n              swap3\n              pop\n                /* \"#utility.yul\":8393:8394   */\n              dup3\n                /* \"#utility.yul\":8390:8391   */\n              dup3\n                /* \"#utility.yul\":8386:8395   */\n              add\n                /* \"#utility.yul\":8379:8395   */\n              swap1\n              pop\n                /* \"#utility.yul\":8414:8417   */\n              dup1\n                /* \"#utility.yul\":8411:8412   */\n              dup3\n                /* \"#utility.yul\":8408:8418   */\n              gt\n                /* \"#utility.yul\":8405:8441   */\n              iszero\n              tag_185\n              jumpi\n                /* \"#utility.yul\":8421:8439   */\n              tag_186\n              tag_113\n              jump\t// in\n            tag_186:\n                /* \"#utility.yul\":8405:8441   */\n            tag_185:\n                /* \"#utility.yul\":8257:8448   */\n              swap3\n              swap2\n              pop\n              pop\n              jump\t// out\n                /* \"#utility.yul\":8454:8625   */\n            tag_114:\n                /* \"#utility.yul\":8594:8617   */\n              0x4f776e6572206973207374696c6c206163746976650000000000000000000000\n                /* \"#utility.yul\":8590:8591   */\n              0x00\n                /* \"#utility.yul\":8582:8588   */\n              dup3\n                /* \"#utility.yul\":8578:8592   */\n              add\n                /* \"#utility.yul\":8571:8618   */\n              mstore\n                /* \"#utility.yul\":8454:8625   */\n              pop\n              jump\t// out\n                /* \"#utility.yul\":8631:8997   */\n            tag_115:\n                /* \"#utility.yul\":8773:8776   */\n              0x00\n                /* \"#utility.yul\":8794:8861   */\n              tag_189\n                /* \"#utility.yul\":8858:8860   */\n              0x15\n                /* \"#utility.yul\":8853:8856   */\n              dup4\n                /* \"#utility.yul\":8794:8861   */\n              tag_99\n              jump\t// in\n            tag_189:\n                /* \"#utility.yul\":8787:8861   */\n              swap2\n              pop\n                /* \"#utility.yul\":8870:8963   */\n              tag_190\n                /* \"#utility.yul\":8959:8962   */\n              dup3\n                /* \"#utility.yul\":8870:8963   */\n              tag_114\n              jump\t// in\n            tag_190:\n                /* \"#utility.yul\":8988:8990   */\n              0x20\n                /* \"#utility.yul\":8983:8986   */\n              dup3\n                /* \"#utility.yul\":8979:8991   */\n              add\n                /* \"#utility.yul\":8972:8991   */\n              swap1\n              pop\n                /* \"#utility.yul\":8631:8997   */\n              swap2\n              swap1\n              pop\n              jump\t// out\n                /* \"#utility.yul\":9003:9422   */\n            tag_78:\n                /* \"#utility.yul\":9169:9173   */\n              0x00\n                /* \"#utility.yul\":9207:9209   */\n              0x20\n                /* \"#utility.yul\":9196:9205   */\n              dup3\n                /* \"#utility.yul\":9192:9210   */\n              add\n                /* \"#utility.yul\":9184:9210   */\n              swap1\n              pop\n                /* \"#utility.yul\":9256:9265   */\n              dup2\n                /* \"#utility.yul\":9250:9254   */\n              dup2\n                /* \"#utility.yul\":9246:9266   */\n              sub\n                /* \"#utility.yul\":9242:9243   */\n              0x00\n                /* \"#utility.yul\":9231:9240   */\n              dup4\n                /* \"#utility.yul\":9227:9244   */\n              add\n                /* \"#utility.yul\":9220:9267   */\n              mstore\n                /* \"#utility.yul\":9284:9415   */\n              tag_192\n                /* \"#utility.yul\":9410:9414   */\n              dup2\n                /* \"#utility.yul\":9284:9415   */\n              tag_115\n              jump\t// in\n            tag_192:\n                /* \"#utility.yul\":9276:9415   */\n              swap1\n              pop\n                /* \"#utility.yul\":9003:9422   */\n              swap2\n              swap1\n              pop\n              jump\t// out\n                /* \"#utility.yul\":9428:9595   */\n            tag_116:\n                /* \"#utility.yul\":9568:9587   */\n              0x4e6f2066756e647320746f20647261696e000000000000000000000000000000\n                /* \"#utility.yul\":9564:9565   */\n              0x00\n                /* \"#utility.yul\":9556:9562   */\n              dup3\n                /* \"#utility.yul\":9552:9566   */\n              add\n                /* \"#utility.yul\":9545:9588   */\n              mstore\n                /* \"#utility.yul\":9428:9595   */\n              pop\n              jump\t// out\n                /* \"#utility.yul\":9601:9967   */\n            tag_117:\n                /* \"#utility.yul\":9743:9746   */\n              0x00\n                /* \"#utility.yul\":9764:9831   */\n              tag_195\n                /* \"#utility.yul\":9828:9830   */\n              0x11\n                /* \"#utility.yul\":9823:9826   */\n              dup4\n                /* \"#utility.yul\":9764:9831   */\n              tag_99\n              jump\t// in\n            tag_195:\n                /* \"#utility.yul\":9757:9831   */\n              swap2\n              pop\n                /* \"#utility.yul\":9840:9933   */\n              tag_196\n                /* \"#utility.yul\":9929:9932   */\n              dup3\n                /* \"#utility.yul\":9840:9933   */\n              tag_116\n              jump\t// in\n            tag_196:\n                /* \"#utility.yul\":9958:9960   */\n              0x20\n                /* \"#utility.yul\":9953:9956   */\n              dup3\n                /* \"#utility.yul\":9949:9961   */\n              add\n                /* \"#utility.yul\":9942:9961   */\n              swap1\n              pop\n                /* \"#utility.yul\":9601:9967   */\n              swap2\n              swap1\n              pop\n              jump\t// out\n                /* \"#utility.yul\":9973:10392   */\n            tag_81:\n                /* \"#utility.yul\":10139:10143   */\n              0x00\n                /* \"#utility.yul\":10177:10179   */\n              0x20\n                /* \"#utility.yul\":10166:10175   */\n              dup3\n                /* \"#utility.yul\":10162:10180   */\n              add\n                /* \"#utility.yul\":10154:10180   */\n              swap1\n              pop\n                /* \"#utility.yul\":10226:10235   */\n              dup2\n                /* \"#utility.yul\":10220:10224   */\n              dup2\n                /* \"#utility.yul\":10216:10236   */\n              sub\n                /* \"#utility.yul\":10212:10213   */\n              0x00\n                /* \"#utility.yul\":10201:10210   */\n              dup4\n                /* \"#utility.yul\":10197:10214   */\n              add\n                /* \"#utility.yul\":10190:10237   */\n              mstore\n                /* \"#utility.yul\":10254:10385   */\n              tag_198\n                /* \"#utility.yul\":10380:10384   */\n              dup2\n                /* \"#utility.yul\":10254:10385   */\n              tag_117\n              jump\t// in\n            tag_198:\n                /* \"#utility.yul\":10246:10385   */\n              swap1\n              pop\n                /* \"#utility.yul\":9973:10392   */\n              swap2\n              swap1\n              pop\n              jump\t// out\n\n            auxdata: 0xa2646970667358221220619b095efae8567c8544f33e7c8e3aa9fa574556c81a22913769a58f2390356b64736f6c634300081c0033\n        }\n    }\n\n    auxdata: 0xa264697066735822122093f1d7b13a4541b8e472a1ab0e6b996961e9eab128d83ca7b060c986bdf9189664736f6c634300081c0033\n}\n","bytecode":{"linkReferences":{},"object":"6080604052348015600e575f5ffd5b506115bb8061001c5f395ff3fe608060405234801561000f575f5ffd5b5060043610610055575f3560e01c806334c925f0146100595780639ad1ee1014610089578063b0199c18146100b9578063b789003d146100d7578063faf6b3b314610107575b5f5ffd5b610073600480360381019061006e919061049b565b610137565b604051610080919061057d565b60405180910390f35b6100a3600480360381019061009e91906105d0565b6101ff565b6040516100b0919061060a565b60405180910390f35b6100c1610239565b6040516100ce9190610632565b60405180910390f35b6100f160048036038101906100ec919061064b565b610244565b6040516100fe919061060a565b60405180910390f35b610121600480360381019061011c919061049b565b61028c565b60405161012e919061060a565b60405180910390f35b606060015f8373ffffffffffffffffffffffffffffffffffffffff1673ffffffffffffffffffffffffffffffffffffffff1681526020019081526020015f208054806020026020016040519081016040528092919081815260200182805480156101f357602002820191905f5260205f20905b815f9054906101000a900473ffffffffffffffffffffffffffffffffffffffff1673ffffffffffffffffffffffffffffffffffffffff16815260200190600101908083116101aa575b50505050509050919050565b5f818154811061020d575f80fd5b905f5260205f20015f915054906101000a900473ffffffffffffffffffffffffffffffffffffffff1681565b5f5f80549050905090565b6001602052815f5260405f20818154811061025d575f80fd5b905f5260205f20015f915091509054906101000a900473ffffffffffffffffffffffffffffffffffffffff1681565b5f5f823360405161029c90610430565b6102a7929190610689565b604051809103905ff0801580156102c0573d5f5f3e3d5ffd5b5090505f8190505f81908060018154018082558091505060019003905f5260205f20015f9091909190916101000a81548173ffffffffffffffffffffffffffffffffffffffff021916908373ffffffffffffffffffffffffffffffffffffffff16021790555060015f3373ffffffffffffffffffffffffffffffffffffffff1673ffffffffffffffffffffffffffffffffffffffff1681526020019081526020015f2081908060018154018082558091505060019003905f5260205f20015f9091909190916101000a81548173ffffffffffffffffffffffffffffffffffffffff021916908373ffffffffffffffffffffffffffffffffffffffff1602179055508373ffffffffffffffffffffffffffffffffffffffff163373ffffffffffffffffffffffffffffffffffffffff167f8a14d1d7200360982eafa429b53edf408f7f589e6da6558f3c116c7f708327b38360405161041e919061060a565b60405180910390a38092505050919050565b610ed5806106b183390190565b5f5ffd5b5f73ffffffffffffffffffffffffffffffffffffffff82169050919050565b5f61046a82610441565b9050919050565b61047a81610460565b8114610484575f5ffd5b50565b5f8135905061049581610471565b92915050565b5f602082840312156104b0576104af61043d565b5b5f6104bd84828501610487565b91505092915050565b5f81519050919050565b5f82825260208201905092915050565b5f819050602082019050919050565b6104f881610460565b82525050565b5f61050983836104ef565b60208301905092915050565b5f602082019050919050565b5f61052b826104c6565b61053581856104d0565b9350610540836104e0565b805f5b8381101561057057815161055788826104fe565b975061056283610515565b925050600181019050610543565b5085935050505092915050565b5f6020820190508181035f8301526105958184610521565b905092915050565b5f819050919050565b6105af8161059d565b81146105b9575f5ffd5b50565b5f813590506105ca816105a6565b92915050565b5f602082840312156105e5576105e461043d565b5b5f6105f2848285016105bc565b91505092915050565b61060481610460565b82525050565b5f60208201905061061d5f8301846105fb565b92915050565b61062c8161059d565b82525050565b5f6020820190506106455f830184610623565b92915050565b5f5f604083850312156106615761066061043d565b5b5f61066e85828601610487565b925050602061067f858286016105bc565b9150509250929050565b5f60408201905061069c5f8301856105fb565b6106a960208301846105fb565b939250505056fe608060405234801561000f575f5ffd5b50604051610ed5380380610ed58339818101604052810190610031919061011c565b805f5f6101000a81548173ffffffffffffffffffffffffffffffffffffffff021916908373ffffffffffffffffffffffffffffffffffffffff1602179055508160015f6101000a81548173ffffffffffffffffffffffffffffffffffffffff021916908373ffffffffffffffffffffffffffffffffffffffff16021790555042600281905550505061015a565b5f5ffd5b5f73ffffffffffffffffffffffffffffffffffffffff82169050919050565b5f6100eb826100c2565b9050919050565b6100fb816100e1565b8114610105575f5ffd5b50565b5f81519050610116816100f2565b92915050565b5f5f60408385031215610132576101316100be565b5b5f61013f85828601610108565b925050602061015085828601610108565b9150509250929050565b610d6e806101675f395ff3fe608060405260043610610073575f3560e01c80638da5cb5b1161004d5780638da5cb5b146100d457806392c2bcb4146100fe5780639890220b14610126578063d27440fd1461013c5761007a565b80633ccfd60b1461007e5780635c36b1861461009457806366d003ac146100aa5761007a565b3661007a57005b5f5ffd5b348015610089575f5ffd5b50610092610166565b005b34801561009f575f5ffd5b506100a8610374565b005b3480156100b5575f5ffd5b506100be61045b565b6040516100cb919061090c565b60405180910390f35b3480156100df575f5ffd5b506100e8610480565b6040516100f5919061090c565b60405180910390f35b348015610109575f5ffd5b50610124600480360381019061011f9190610953565b6104a4565b005b348015610131575f5ffd5b5061013a610663565b005b348015610147575f5ffd5b506101506108c7565b60405161015d9190610996565b60405180910390f35b5f5f9054906101000a900473ffffffffffffffffffffffffffffffffffffffff1673ffffffffffffffffffffffffffffffffffffffff163373ffffffffffffffffffffffffffffffffffffffff16146101f4576040517f08c379a00000000000000000000000000000000000000000000000000000000081526004016101eb90610a09565b60405180910390fd5b5f4790505f811161023a576040517f08c379a000000000000000000000000000000000000000000000000000000000815260040161023190610a71565b60405180910390fd5b5f5f5f9054906101000a900473ffffffffffffffffffffffffffffffffffffffff1673ffffffffffffffffffffffffffffffffffffffff168260405161027f90610abc565b5f6040518083038185875af1925050503d805f81146102b9576040519150601f19603f3d011682016040523d82523d5f602084013e6102be565b606091505b5050905080610302576040517f08c379a00000000000000000000000000000000000000000000000000000000081526004016102f990610b1a565b60405180910390fd5b5f5f9054906101000a900473ffffffffffffffffffffffffffffffffffffffff1673ffffffffffffffffffffffffffffffffffffffff167f7fcf532c15f0a6db0bd6d0e038bea71d30d808c7d98cb3bf7268a95bf5081b65836040516103689190610996565b60405180910390a25050565b5f5f9054906101000a900473ffffffffffffffffffffffffffffffffffffffff1673ffffffffffffffffffffffffffffffffffffffff163373ffffffffffffffffffffffffffffffffffffffff1614610402576040517f08c379a00000000000000000000000000000000000000000000000000000000081526004016103f990610a09565b60405180910390fd5b426002819055503373ffffffffffffffffffffffffffffffffffffffff167f78a327424158f99dcde9deeb550e97c0f1d53b23ebaec3ac54a53f58504b3c856002546040516104519190610996565b60405180910390a2565b60015f9054906101000a900473ffffffffffffffffffffffffffffffffffffffff1681565b5f5f9054906101000a900473ffffffffffffffffffffffffffffffffffffffff1681565b5f5f9054906101000a900473ffffffffffffffffffffffffffffffffffffffff1673ffffffffffffffffffffffffffffffffffffffff163373ffffffffffffffffffffffffffffffffffffffff1614610532576040517f08c379a000000000000000000000000000000000000000000000000000000000815260040161052990610a09565b60405180910390fd5b5f73ffffffffffffffffffffffffffffffffffffffff168173ffffffffffffffffffffffffffffffffffffffff16036105a0576040517f08c379a000000000000000000000000000000000000000000000000000000000815260040161059790610b82565b60405180910390fd5b5f60015f9054906101000a900473ffffffffffffffffffffffffffffffffffffffff1690508160015f6101000a81548173ffffffffffffffffffffffffffffffffffffffff021916908373ffffffffffffffffffffffffffffffffffffffff1602179055508173ffffffffffffffffffffffffffffffffffffffff168173ffffffffffffffffffffffffffffffffffffffff167f4a9d367b1b0cd787be10021f1c55cb49c9f2302334e6df35c9621005eb22251460405160405180910390a35050565b60015f9054906101000a900473ffffffffffffffffffffffffffffffffffffffff1673ffffffffffffffffffffffffffffffffffffffff163373ffffffffffffffffffffffffffffffffffffffff16146106f2576040517f08c379a00000000000000000000000000000000000000000000000000000000081526004016106e990610bea565b60405180910390fd5b6301e133806002546107049190610c35565b4211610745576040517f08c379a000000000000000000000000000000000000000000000000000000000815260040161073c90610cb2565b60405180910390fd5b5f4790505f811161078b576040517f08c379a000000000000000000000000000000000000000000000000000000000815260040161078290610d1a565b60405180910390fd5b5f60015f9054906101000a900473ffffffffffffffffffffffffffffffffffffffff1673ffffffffffffffffffffffffffffffffffffffff16826040516107d190610abc565b5f6040518083038185875af1925050503d805f811461080b576040519150601f19603f3d011682016040523d82523d5f602084013e610810565b606091505b5050905080610854576040517f08c379a000000000000000000000000000000000000000000000000000000000815260040161084b90610b1a565b60405180910390fd5b60015f9054906101000a900473ffffffffffffffffffffffffffffffffffffffff1673ffffffffffffffffffffffffffffffffffffffff167f01299bd5af84e23c4c82c1d4eddf2a9c00e70b8b886076d06cdbe7c6fc80a87d836040516108bb9190610996565b60405180910390a25050565b60025481565b5f73ffffffffffffffffffffffffffffffffffffffff82169050919050565b5f6108f6826108cd565b9050919050565b610906816108ec565b82525050565b5f60208201905061091f5f8301846108fd565b92915050565b5f5ffd5b610932816108ec565b811461093c575f5ffd5b50565b5f8135905061094d81610929565b92915050565b5f6020828403121561096857610967610925565b5b5f6109758482850161093f565b91505092915050565b5f819050919050565b6109908161097e565b82525050565b5f6020820190506109a95f830184610987565b92915050565b5f82825260208201905092915050565b7f4e6f742074686520636f6e7472616374206f776e6572000000000000000000005f82015250565b5f6109f36016836109af565b91506109fe826109bf565b602082019050919050565b5f6020820190508181035f830152610a20816109e7565b9050919050565b7f4e6f2066756e647320746f2077697468647261770000000000000000000000005f82015250565b5f610a5b6014836109af565b9150610a6682610a27565b602082019050919050565b5f6020820190508181035f830152610a8881610a4f565b9050919050565b5f81905092915050565b50565b5f610aa75f83610a8f565b9150610ab282610a99565b5f82019050919050565b5f610ac682610a9c565b9150819050919050565b7f5472616e73666572206661696c656400000000000000000000000000000000005f82015250565b5f610b04600f836109af565b9150610b0f82610ad0565b602082019050919050565b5f6020820190508181035f830152610b3181610af8565b9050919050565b7f496e76616c696420726563697069656e742061646472657373000000000000005f82015250565b5f610b6c6019836109af565b9150610b7782610b38565b602082019050919050565b5f6020820190508181035f830152610b9981610b60565b9050919050565b7f4f6e6c7920726563697069656e742063616e20647261696e00000000000000005f82015250565b5f610bd46018836109af565b9150610bdf82610ba0565b602082019050919050565b5f6020820190508181035f830152610c0181610bc8565b9050919050565b7f4e487b71000000000000000000000000000000000000000000000000000000005f52601160045260245ffd5b5f610c3f8261097e565b9150610c4a8361097e565b9250828201905080821115610c6257610c61610c08565b5b92915050565b7f4f776e6572206973207374696c6c2061637469766500000000000000000000005f82015250565b5f610c9c6015836109af565b9150610ca782610c68565b602082019050919050565b5f6020820190508181035f830152610cc981610c90565b9050919050565b7f4e6f2066756e647320746f20647261696e0000000000000000000000000000005f82015250565b5f610d046011836109af565b9150610d0f82610cd0565b602082019050919050565b5f6020820190508181035f830152610d3181610cf8565b905091905056fea2646970667358221220619b095efae8567c8544f33e7c8e3aa9fa574556c81a22913769a58f2390356b64736f6c634300081c0033a264697066735822122093f1d7b13a4541b8e472a1ab0e6b996961e9eab128d83ca7b060c986bdf9189664736f6c634300081c0033","opcodes":"PUSH1 0x80 PUSH1 0x40 MSTORE CALLVALUE DUP1 ISZERO PUSH1 0xE JUMPI PUSH0 PUSH0 REVERT JUMPDEST POP PUSH2 0x15BB DUP1 PUSH2 0x1C PUSH0 CODECOPY PUSH0 RETURN INVALID PUSH1 0x80 PUSH1 0x40 MSTORE CALLVALUE DUP1 ISZERO PUSH2 0xF JUMPI PUSH0 PUSH0 REVERT JUMPDEST POP PUSH1 0x4 CALLDATASIZE LT PUSH2 0x55 JUMPI PUSH0 CALLDATALOAD PUSH1 0xE0 SHR DUP1 PUSH4 0x34C925F0 EQ PUSH2 0x59 JUMPI DUP1 PUSH4 0x9AD1EE10 EQ PUSH2 0x89 JUMPI DUP1 PUSH4 0xB0199C18 EQ PUSH2 0xB9 JUMPI DUP1 PUSH4 0xB789003D EQ PUSH2 0xD7 JUMPI DUP1 PUSH4 0xFAF6B3B3 EQ PUSH2 0x107 JUMPI JUMPDEST PUSH0 PUSH0 REVERT JUMPDEST PUSH2 0x73 PUSH1 0x4 DUP1 CALLDATASIZE SUB DUP2 ADD SWAP1 PUSH2 0x6E SWAP2 SWAP1 PUSH2 0x49B JUMP JUMPDEST PUSH2 0x137 JUMP JUMPDEST PUSH1 0x40 MLOAD PUSH2 0x80 SWAP2 SWAP1 PUSH2 0x57D JUMP JUMPDEST PUSH1 0x40 MLOAD DUP1 SWAP2 SUB SWAP1 RETURN JUMPDEST PUSH2 0xA3 PUSH1 0x4 DUP1 CALLDATASIZE SUB DUP2 ADD SWAP1 PUSH2 0x9E SWAP2 SWAP1 PUSH2 0x5D0 JUMP JUMPDEST PUSH2 0x1FF JUMP JUMPDEST PUSH1 0x40 MLOAD PUSH2 0xB0 SWAP2 SWAP1 PUSH2 0x60A JUMP JUMPDEST PUSH1 0x40 MLOAD DUP1 SWAP2 SUB SWAP1 RETURN JUMPDEST PUSH2 0xC1 PUSH2 0x239 JUMP JUMPDEST PUSH1 0x40 MLOAD PUSH2 0xCE SWAP2 SWAP1 PUSH2 0x632 JUMP JUMPDEST PUSH1 0x40 MLOAD DUP1 SWAP2 SUB SWAP1 RETURN JUMPDEST PUSH2 0xF1 PUSH1 0x4 DUP1 CALLDATASIZE SUB DUP2 ADD SWAP1 PUSH2 0xEC SWAP2 SWAP1 PUSH2 0x64B JUMP JUMPDEST PUSH2 0x244 JUMP JUMPDEST PUSH1 0x40 MLOAD PUSH2 0xFE SWAP2 SWAP1 PUSH2 0x60A JUMP JUMPDEST PUSH1 0x40 MLOAD DUP1 SWAP2 SUB SWAP1 RETURN JUMPDEST PUSH2 0x121 PUSH1 0x4 DUP1 CALLDATASIZE SUB DUP2 ADD SWAP1 PUSH2 0x11C SWAP2 SWAP1 PUSH2 0x49B JUMP JUMPDEST PUSH2 0x28C JUMP JUMPDEST PUSH1 0x40 MLOAD PUSH2 0x12E SWAP2 SWAP1 PUSH2 0x60A JUMP JUMPDEST PUSH1 0x40 MLOAD DUP1 SWAP2 SUB SWAP1 RETURN JUMPDEST PUSH1 0x60 PUSH1 0x1 PUSH0 DUP4 PUSH20 0xFFFFFFFFFFFFFFFFFFFFFFFFFFFFFFFFFFFFFFFF AND PUSH20 0xFFFFFFFFFFFFFFFFFFFFFFFFFFFFFFFFFFFFFFFF AND DUP2 MSTORE PUSH1 0x20 ADD SWAP1 DUP2 MSTORE PUSH1 0x20 ADD PUSH0 KECCAK256 DUP1 SLOAD DUP1 PUSH1 0x20 MUL PUSH1 0x20 ADD PUSH1 0x40 MLOAD SWAP1 DUP2 ADD PUSH1 0x40 MSTORE DUP1 SWAP3 SWAP2 SWAP1 DUP2 DUP2 MSTORE PUSH1 0x20 ADD DUP3 DUP1 SLOAD DUP1 ISZERO PUSH2 0x1F3 JUMPI PUSH1 0x20 MUL DUP3 ADD SWAP2 SWAP1 PUSH0 MSTORE PUSH1 0x20 PUSH0 KECCAK256 SWAP1 JUMPDEST DUP2 PUSH0 SWAP1 SLOAD SWAP1 PUSH2 0x100 EXP SWAP1 DIV PUSH20 0xFFFFFFFFFFFFFFFFFFFFFFFFFFFFFFFFFFFFFFFF AND PUSH20 0xFFFFFFFFFFFFFFFFFFFFFFFFFFFFFFFFFFFFFFFF AND DUP2 MSTORE PUSH1 0x20 ADD SWAP1 PUSH1 0x1 ADD SWAP1 DUP1 DUP4 GT PUSH2 0x1AA JUMPI JUMPDEST POP POP POP POP POP SWAP1 POP SWAP2 SWAP1 POP JUMP JUMPDEST PUSH0 DUP2 DUP2 SLOAD DUP2 LT PUSH2 0x20D JUMPI PUSH0 DUP1 REVERT JUMPDEST SWAP1 PUSH0 MSTORE PUSH1 0x20 PUSH0 KECCAK256 ADD PUSH0 SWAP2 POP SLOAD SWAP1 PUSH2 0x100 EXP SWAP1 DIV PUSH20 0xFFFFFFFFFFFFFFFFFFFFFFFFFFFFFFFFFFFFFFFF AND DUP2 JUMP JUMPDEST PUSH0 PUSH0 DUP1 SLOAD SWAP1 POP SWAP1 POP SWAP1 JUMP JUMPDEST PUSH1 0x1 PUSH1 0x20 MSTORE DUP2 PUSH0 MSTORE PUSH1 0x40 PUSH0 KECCAK256 DUP2 DUP2 SLOAD DUP2 LT PUSH2 0x25D JUMPI PUSH0 DUP1 REVERT JUMPDEST SWAP1 PUSH0 MSTORE PUSH1 0x20 PUSH0 KECCAK256 ADD PUSH0 SWAP2 POP SWAP2 POP SWAP1 SLOAD SWAP1 PUSH2 0x100 EXP SWAP1 DIV PUSH20 0xFFFFFFFFFFFFFFFFFFFFFFFFFFFFFFFFFFFFFFFF AND DUP2 JUMP JUMPDEST PUSH0 PUSH0 DUP3 CALLER PUSH1 0x40 MLOAD PUSH2 0x29C SWAP1 PUSH2 0x430 JUMP JUMPDEST PUSH2 0x2A7 SWAP3 SWAP2 SWAP1 PUSH2 0x689 JUMP JUMPDEST PUSH1 0x40 MLOAD DUP1 SWAP2 SUB SWAP1 PUSH0 CREATE DUP1 ISZERO DUP1 ISZERO PUSH2 0x2C0 JUMPI RETURNDATASIZE PUSH0 PUSH0 RETURNDATACOPY RETURNDATASIZE PUSH0 REVERT JUMPDEST POP SWAP1 POP PUSH0 DUP2 SWAP1 POP PUSH0 DUP2 SWAP1 DUP1 PUSH1 0x1 DUP2 SLOAD ADD DUP1 DUP3 SSTORE DUP1 SWAP2 POP POP PUSH1 0x1 SWAP1 SUB SWAP1 PUSH0 MSTORE PUSH1 0x20 PUSH0 KECCAK256 ADD PUSH0 SWAP1 SWAP2 SWAP1 SWAP2 SWAP1 SWAP2 PUSH2 0x100 EXP DUP2 SLOAD DUP2 PUSH20 0xFFFFFFFFFFFFFFFFFFFFFFFFFFFFFFFFFFFFFFFF MUL NOT AND SWAP1 DUP4 PUSH20 0xFFFFFFFFFFFFFFFFFFFFFFFFFFFFFFFFFFFFFFFF AND MUL OR SWAP1 SSTORE POP PUSH1 0x1 PUSH0 CALLER PUSH20 0xFFFFFFFFFFFFFFFFFFFFFFFFFFFFFFFFFFFFFFFF AND PUSH20 0xFFFFFFFFFFFFFFFFFFFFFFFFFFFFFFFFFFFFFFFF AND DUP2 MSTORE PUSH1 0x20 ADD SWAP1 DUP2 MSTORE PUSH1 0x20 ADD PUSH0 KECCAK256 DUP2 SWAP1 DUP1 PUSH1 0x1 DUP2 SLOAD ADD DUP1 DUP3 SSTORE DUP1 SWAP2 POP POP PUSH1 0x1 SWAP1 SUB SWAP1 PUSH0 MSTORE PUSH1 0x20 PUSH0 KECCAK256 ADD PUSH0 SWAP1 SWAP2 SWAP1 SWAP2 SWAP1 SWAP2 PUSH2 0x100 EXP DUP2 SLOAD DUP2 PUSH20 0xFFFFFFFFFFFFFFFFFFFFFFFFFFFFFFFFFFFFFFFF MUL NOT AND SWAP1 DUP4 PUSH20 0xFFFFFFFFFFFFFFFFFFFFFFFFFFFFFFFFFFFFFFFF AND MUL OR SWAP1 SSTORE POP DUP4 PUSH20 0xFFFFFFFFFFFFFFFFFFFFFFFFFFFFFFFFFFFFFFFF AND CALLER PUSH20 0xFFFFFFFFFFFFFFFFFFFFFFFFFFFFFFFFFFFFFFFF AND PUSH32 0x8A14D1D7200360982EAFA429B53EDF408F7F589E6DA6558F3C116C7F708327B3 DUP4 PUSH1 0x40 MLOAD PUSH2 0x41E SWAP2 SWAP1 PUSH2 0x60A JUMP JUMPDEST PUSH1 0x40 MLOAD DUP1 SWAP2 SUB SWAP1 LOG3 DUP1 SWAP3 POP POP POP SWAP2 SWAP1 POP JUMP JUMPDEST PUSH2 0xED5 DUP1 PUSH2 0x6B1 DUP4 CODECOPY ADD SWAP1 JUMP JUMPDEST PUSH0 PUSH0 REVERT JUMPDEST PUSH0 PUSH20 0xFFFFFFFFFFFFFFFFFFFFFFFFFFFFFFFFFFFFFFFF DUP3 AND SWAP1 POP SWAP2 SWAP1 POP JUMP JUMPDEST PUSH0 PUSH2 0x46A DUP3 PUSH2 0x441 JUMP JUMPDEST SWAP1 POP SWAP2 SWAP1 POP JUMP JUMPDEST PUSH2 0x47A DUP2 PUSH2 0x460 JUMP JUMPDEST DUP2 EQ PUSH2 0x484 JUMPI PUSH0 PUSH0 REVERT JUMPDEST POP JUMP JUMPDEST PUSH0 DUP2 CALLDATALOAD SWAP1 POP PUSH2 0x495 DUP2 PUSH2 0x471 JUMP JUMPDEST SWAP3 SWAP2 POP POP JUMP JUMPDEST PUSH0 PUSH1 0x20 DUP3 DUP5 SUB SLT ISZERO PUSH2 0x4B0 JUMPI PUSH2 0x4AF PUSH2 0x43D JUMP JUMPDEST JUMPDEST PUSH0 PUSH2 0x4BD DUP5 DUP3 DUP6 ADD PUSH2 0x487 JUMP JUMPDEST SWAP2 POP POP SWAP3 SWAP2 POP POP JUMP JUMPDEST PUSH0 DUP2 MLOAD SWAP1 POP SWAP2 SWAP1 POP JUMP JUMPDEST PUSH0 DUP3 DUP3 MSTORE PUSH1 0x20 DUP3 ADD SWAP1 POP SWAP3 SWAP2 POP POP JUMP JUMPDEST PUSH0 DUP2 SWAP1 POP PUSH1 0x20 DUP3 ADD SWAP1 POP SWAP2 SWAP1 POP JUMP JUMPDEST PUSH2 0x4F8 DUP2 PUSH2 0x460 JUMP JUMPDEST DUP3 MSTORE POP POP JUMP JUMPDEST PUSH0 PUSH2 0x509 DUP4 DUP4 PUSH2 0x4EF JUMP JUMPDEST PUSH1 0x20 DUP4 ADD SWAP1 POP SWAP3 SWAP2 POP POP JUMP JUMPDEST PUSH0 PUSH1 0x20 DUP3 ADD SWAP1 POP SWAP2 SWAP1 POP JUMP JUMPDEST PUSH0 PUSH2 0x52B DUP3 PUSH2 0x4C6 JUMP JUMPDEST PUSH2 0x535 DUP2 DUP6 PUSH2 0x4D0 JUMP JUMPDEST SWAP4 POP PUSH2 0x540 DUP4 PUSH2 0x4E0 JUMP JUMPDEST DUP1 PUSH0 JUMPDEST DUP4 DUP2 LT ISZERO PUSH2 0x570 JUMPI DUP2 MLOAD PUSH2 0x557 DUP9 DUP3 PUSH2 0x4FE JUMP JUMPDEST SWAP8 POP PUSH2 0x562 DUP4 PUSH2 0x515 JUMP JUMPDEST SWAP3 POP POP PUSH1 0x1 DUP2 ADD SWAP1 POP PUSH2 0x543 JUMP JUMPDEST POP DUP6 SWAP4 POP POP POP POP SWAP3 SWAP2 POP POP JUMP JUMPDEST PUSH0 PUSH1 0x20 DUP3 ADD SWAP1 POP DUP2 DUP2 SUB PUSH0 DUP4 ADD MSTORE PUSH2 0x595 DUP2 DUP5 PUSH2 0x521 JUMP JUMPDEST SWAP1 POP SWAP3 SWAP2 POP POP JUMP JUMPDEST PUSH0 DUP2 SWAP1 POP SWAP2 SWAP1 POP JUMP JUMPDEST PUSH2 0x5AF DUP2 PUSH2 0x59D JUMP JUMPDEST DUP2 EQ PUSH2 0x5B9 JUMPI PUSH0 PUSH0 REVERT JUMPDEST POP JUMP JUMPDEST PUSH0 DUP2 CALLDATALOAD SWAP1 POP PUSH2 0x5CA DUP2 PUSH2 0x5A6 JUMP JUMPDEST SWAP3 SWAP2 POP POP JUMP JUMPDEST PUSH0 PUSH1 0x20 DUP3 DUP5 SUB SLT ISZERO PUSH2 0x5E5 JUMPI PUSH2 0x5E4 PUSH2 0x43D JUMP JUMPDEST JUMPDEST PUSH0 PUSH2 0x5F2 DUP5 DUP3 DUP6 ADD PUSH2 0x5BC JUMP JUMPDEST SWAP2 POP POP SWAP3 SWAP2 POP POP JUMP JUMPDEST PUSH2 0x604 DUP2 PUSH2 0x460 JUMP JUMPDEST DUP3 MSTORE POP POP JUMP JUMPDEST PUSH0 PUSH1 0x20 DUP3 ADD SWAP1 POP PUSH2 0x61D PUSH0 DUP4 ADD DUP5 PUSH2 0x5FB JUMP JUMPDEST SWAP3 SWAP2 POP POP JUMP JUMPDEST PUSH2 0x62C DUP2 PUSH2 0x59D JUMP JUMPDEST DUP3 MSTORE POP POP JUMP JUMPDEST PUSH0 PUSH1 0x20 DUP3 ADD SWAP1 POP PUSH2 0x645 PUSH0 DUP4 ADD DUP5 PUSH2 0x623 JUMP JUMPDEST SWAP3 SWAP2 POP POP JUMP JUMPDEST PUSH0 PUSH0 PUSH1 0x40 DUP4 DUP6 SUB SLT ISZERO PUSH2 0x661 JUMPI PUSH2 0x660 PUSH2 0x43D JUMP JUMPDEST JUMPDEST PUSH0 PUSH2 0x66E DUP6 DUP3 DUP7 ADD PUSH2 0x487 JUMP JUMPDEST SWAP3 POP POP PUSH1 0x20 PUSH2 0x67F DUP6 DUP3 DUP7 ADD PUSH2 0x5BC JUMP JUMPDEST SWAP2 POP POP SWAP3 POP SWAP3 SWAP1 POP JUMP JUMPDEST PUSH0 PUSH1 0x40 DUP3 ADD SWAP1 POP PUSH2 0x69C PUSH0 DUP4 ADD DUP6 PUSH2 0x5FB JUMP JUMPDEST PUSH2 0x6A9 PUSH1 0x20 DUP4 ADD DUP5 PUSH2 0x5FB JUMP JUMPDEST SWAP4 SWAP3 POP POP POP JUMP INVALID PUSH1 0x80 PUSH1 0x40 MSTORE CALLVALUE DUP1 ISZERO PUSH2 0xF JUMPI PUSH0 PUSH0 REVERT JUMPDEST POP PUSH1 0x40 MLOAD PUSH2 0xED5 CODESIZE SUB DUP1 PUSH2 0xED5 DUP4 CODECOPY DUP2 DUP2 ADD PUSH1 0x40 MSTORE DUP2 ADD SWAP1 PUSH2 0x31 SWAP2 SWAP1 PUSH2 0x11C JUMP JUMPDEST DUP1 PUSH0 PUSH0 PUSH2 0x100 EXP DUP2 SLOAD DUP2 PUSH20 0xFFFFFFFFFFFFFFFFFFFFFFFFFFFFFFFFFFFFFFFF MUL NOT AND SWAP1 DUP4 PUSH20 0xFFFFFFFFFFFFFFFFFFFFFFFFFFFFFFFFFFFFFFFF AND MUL OR SWAP1 SSTORE POP DUP2 PUSH1 0x1 PUSH0 PUSH2 0x100 EXP DUP2 SLOAD DUP2 PUSH20 0xFFFFFFFFFFFFFFFFFFFFFFFFFFFFFFFFFFFFFFFF MUL NOT AND SWAP1 DUP4 PUSH20 0xFFFFFFFFFFFFFFFFFFFFFFFFFFFFFFFFFFFFFFFF AND MUL OR SWAP1 SSTORE POP TIMESTAMP PUSH1 0x2 DUP2 SWAP1 SSTORE POP POP POP PUSH2 0x15A JUMP JUMPDEST PUSH0 PUSH0 REVERT JUMPDEST PUSH0 PUSH20 0xFFFFFFFFFFFFFFFFFFFFFFFFFFFFFFFFFFFFFFFF DUP3 AND SWAP1 POP SWAP2 SWAP1 POP JUMP JUMPDEST PUSH0 PUSH2 0xEB DUP3 PUSH2 0xC2 JUMP JUMPDEST SWAP1 POP SWAP2 SWAP1 POP JUMP JUMPDEST PUSH2 0xFB DUP2 PUSH2 0xE1 JUMP JUMPDEST DUP2 EQ PUSH2 0x105 JUMPI PUSH0 PUSH0 REVERT JUMPDEST POP JUMP JUMPDEST PUSH0 DUP2 MLOAD SWAP1 POP PUSH2 0x116 DUP2 PUSH2 0xF2 JUMP JUMPDEST SWAP3 SWAP2 POP POP JUMP JUMPDEST PUSH0 PUSH0 PUSH1 0x40 DUP4 DUP6 SUB SLT ISZERO PUSH2 0x132 JUMPI PUSH2 0x131 PUSH2 0xBE JUMP JUMPDEST JUMPDEST PUSH0 PUSH2 0x13F DUP6 DUP3 DUP7 ADD PUSH2 0x108 JUMP JUMPDEST SWAP3 POP POP PUSH1 0x20 PUSH2 0x150 DUP6 DUP3 DUP7 ADD PUSH2 0x108 JUMP JUMPDEST SWAP2 POP POP SWAP3 POP SWAP3 SWAP1 POP JUMP JUMPDEST PUSH2 0xD6E DUP1 PUSH2 0x167 PUSH0 CODECOPY PUSH0 RETURN INVALID PUSH1 0x80 PUSH1 0x40 MSTORE PUSH1 0x4 CALLDATASIZE LT PUSH2 0x73 JUMPI PUSH0 CALLDATALOAD PUSH1 0xE0 SHR DUP1 PUSH4 0x8DA5CB5B GT PUSH2 0x4D JUMPI DUP1 PUSH4 0x8DA5CB5B EQ PUSH2 0xD4 JUMPI DUP1 PUSH4 0x92C2BCB4 EQ PUSH2 0xFE JUMPI DUP1 PUSH4 0x9890220B EQ PUSH2 0x126 JUMPI DUP1 PUSH4 0xD27440FD EQ PUSH2 0x13C JUMPI PUSH2 0x7A JUMP JUMPDEST DUP1 PUSH4 0x3CCFD60B EQ PUSH2 0x7E JUMPI DUP1 PUSH4 0x5C36B186 EQ PUSH2 0x94 JUMPI DUP1 PUSH4 0x66D003AC EQ PUSH2 0xAA JUMPI PUSH2 0x7A JUMP JUMPDEST CALLDATASIZE PUSH2 0x7A JUMPI STOP JUMPDEST PUSH0 PUSH0 REVERT JUMPDEST CALLVALUE DUP1 ISZERO PUSH2 0x89 JUMPI PUSH0 PUSH0 REVERT JUMPDEST POP PUSH2 0x92 PUSH2 0x166 JUMP JUMPDEST STOP JUMPDEST CALLVALUE DUP1 ISZERO PUSH2 0x9F JUMPI PUSH0 PUSH0 REVERT JUMPDEST POP PUSH2 0xA8 PUSH2 0x374 JUMP JUMPDEST STOP JUMPDEST CALLVALUE DUP1 ISZERO PUSH2 0xB5 JUMPI PUSH0 PUSH0 REVERT JUMPDEST POP PUSH2 0xBE PUSH2 0x45B JUMP JUMPDEST PUSH1 0x40 MLOAD PUSH2 0xCB SWAP2 SWAP1 PUSH2 0x90C JUMP JUMPDEST PUSH1 0x40 MLOAD DUP1 SWAP2 SUB SWAP1 RETURN JUMPDEST CALLVALUE DUP1 ISZERO PUSH2 0xDF JUMPI PUSH0 PUSH0 REVERT JUMPDEST POP PUSH2 0xE8 PUSH2 0x480 JUMP JUMPDEST PUSH1 0x40 MLOAD PUSH2 0xF5 SWAP2 SWAP1 PUSH2 0x90C JUMP JUMPDEST PUSH1 0x40 MLOAD DUP1 SWAP2 SUB SWAP1 RETURN JUMPDEST CALLVALUE DUP1 ISZERO PUSH2 0x109 JUMPI PUSH0 PUSH0 REVERT JUMPDEST POP PUSH2 0x124 PUSH1 0x4 DUP1 CALLDATASIZE SUB DUP2 ADD SWAP1 PUSH2 0x11F SWAP2 SWAP1 PUSH2 0x953 JUMP JUMPDEST PUSH2 0x4A4 JUMP JUMPDEST STOP JUMPDEST CALLVALUE DUP1 ISZERO PUSH2 0x131 JUMPI PUSH0 PUSH0 REVERT JUMPDEST POP PUSH2 0x13A PUSH2 0x663 JUMP JUMPDEST STOP JUMPDEST CALLVALUE DUP1 ISZERO PUSH2 0x147 JUMPI PUSH0 PUSH0 REVERT JUMPDEST POP PUSH2 0x150 PUSH2 0x8C7 JUMP JUMPDEST PUSH1 0x40 MLOAD PUSH2 0x15D SWAP2 SWAP1 PUSH2 0x996 JUMP JUMPDEST PUSH1 0x40 MLOAD DUP1 SWAP2 SUB SWAP1 RETURN JUMPDEST PUSH0 PUSH0 SWAP1 SLOAD SWAP1 PUSH2 0x100 EXP SWAP1 DIV PUSH20 0xFFFFFFFFFFFFFFFFFFFFFFFFFFFFFFFFFFFFFFFF AND PUSH20 0xFFFFFFFFFFFFFFFFFFFFFFFFFFFFFFFFFFFFFFFF AND CALLER PUSH20 0xFFFFFFFFFFFFFFFFFFFFFFFFFFFFFFFFFFFFFFFF AND EQ PUSH2 0x1F4 JUMPI PUSH1 0x40 MLOAD PUSH32 0x8C379A000000000000000000000000000000000000000000000000000000000 DUP2 MSTORE PUSH1 0x4 ADD PUSH2 0x1EB SWAP1 PUSH2 0xA09 JUMP JUMPDEST PUSH1 0x40 MLOAD DUP1 SWAP2 SUB SWAP1 REVERT JUMPDEST PUSH0 SELFBALANCE SWAP1 POP PUSH0 DUP2 GT PUSH2 0x23A JUMPI PUSH1 0x40 MLOAD PUSH32 0x8C379A000000000000000000000000000000000000000000000000000000000 DUP2 MSTORE PUSH1 0x4 ADD PUSH2 0x231 SWAP1 PUSH2 0xA71 JUMP JUMPDEST PUSH1 0x40 MLOAD DUP1 SWAP2 SUB SWAP1 REVERT JUMPDEST PUSH0 PUSH0 PUSH0 SWAP1 SLOAD SWAP1 PUSH2 0x100 EXP SWAP1 DIV PUSH20 0xFFFFFFFFFFFFFFFFFFFFFFFFFFFFFFFFFFFFFFFF AND PUSH20 0xFFFFFFFFFFFFFFFFFFFFFFFFFFFFFFFFFFFFFFFF AND DUP3 PUSH1 0x40 MLOAD PUSH2 0x27F SWAP1 PUSH2 0xABC JUMP JUMPDEST PUSH0 PUSH1 0x40 MLOAD DUP1 DUP4 SUB DUP2 DUP6 DUP8 GAS CALL SWAP3 POP POP POP RETURNDATASIZE DUP1 PUSH0 DUP2 EQ PUSH2 0x2B9 JUMPI PUSH1 0x40 MLOAD SWAP2 POP PUSH1 0x1F NOT PUSH1 0x3F RETURNDATASIZE ADD AND DUP3 ADD PUSH1 0x40 MSTORE RETURNDATASIZE DUP3 MSTORE RETURNDATASIZE PUSH0 PUSH1 0x20 DUP5 ADD RETURNDATACOPY PUSH2 0x2BE JUMP JUMPDEST PUSH1 0x60 SWAP2 POP JUMPDEST POP POP SWAP1 POP DUP1 PUSH2 0x302 JUMPI PUSH1 0x40 MLOAD PUSH32 0x8C379A000000000000000000000000000000000000000000000000000000000 DUP2 MSTORE PUSH1 0x4 ADD PUSH2 0x2F9 SWAP1 PUSH2 0xB1A JUMP JUMPDEST PUSH1 0x40 MLOAD DUP1 SWAP2 SUB SWAP1 REVERT JUMPDEST PUSH0 PUSH0 SWAP1 SLOAD SWAP1 PUSH2 0x100 EXP SWAP1 DIV PUSH20 0xFFFFFFFFFFFFFFFFFFFFFFFFFFFFFFFFFFFFFFFF AND PUSH20 0xFFFFFFFFFFFFFFFFFFFFFFFFFFFFFFFFFFFFFFFF AND PUSH32 0x7FCF532C15F0A6DB0BD6D0E038BEA71D30D808C7D98CB3BF7268A95BF5081B65 DUP4 PUSH1 0x40 MLOAD PUSH2 0x368 SWAP2 SWAP1 PUSH2 0x996 JUMP JUMPDEST PUSH1 0x40 MLOAD DUP1 SWAP2 SUB SWAP1 LOG2 POP POP JUMP JUMPDEST PUSH0 PUSH0 SWAP1 SLOAD SWAP1 PUSH2 0x100 EXP SWAP1 DIV PUSH20 0xFFFFFFFFFFFFFFFFFFFFFFFFFFFFFFFFFFFFFFFF AND PUSH20 0xFFFFFFFFFFFFFFFFFFFFFFFFFFFFFFFFFFFFFFFF AND CALLER PUSH20 0xFFFFFFFFFFFFFFFFFFFFFFFFFFFFFFFFFFFFFFFF AND EQ PUSH2 0x402 JUMPI PUSH1 0x40 MLOAD PUSH32 0x8C379A000000000000000000000000000000000000000000000000000000000 DUP2 MSTORE PUSH1 0x4 ADD PUSH2 0x3F9 SWAP1 PUSH2 0xA09 JUMP JUMPDEST PUSH1 0x40 MLOAD DUP1 SWAP2 SUB SWAP1 REVERT JUMPDEST TIMESTAMP PUSH1 0x2 DUP2 SWAP1 SSTORE POP CALLER PUSH20 0xFFFFFFFFFFFFFFFFFFFFFFFFFFFFFFFFFFFFFFFF AND PUSH32 0x78A327424158F99DCDE9DEEB550E97C0F1D53B23EBAEC3AC54A53F58504B3C85 PUSH1 0x2 SLOAD PUSH1 0x40 MLOAD PUSH2 0x451 SWAP2 SWAP1 PUSH2 0x996 JUMP JUMPDEST PUSH1 0x40 MLOAD DUP1 SWAP2 SUB SWAP1 LOG2 JUMP JUMPDEST PUSH1 0x1 PUSH0 SWAP1 SLOAD SWAP1 PUSH2 0x100 EXP SWAP1 DIV PUSH20 0xFFFFFFFFFFFFFFFFFFFFFFFFFFFFFFFFFFFFFFFF AND DUP2 JUMP JUMPDEST PUSH0 PUSH0 SWAP1 SLOAD SWAP1 PUSH2 0x100 EXP SWAP1 DIV PUSH20 0xFFFFFFFFFFFFFFFFFFFFFFFFFFFFFFFFFFFFFFFF AND DUP2 JUMP JUMPDEST PUSH0 PUSH0 SWAP1 SLOAD SWAP1 PUSH2 0x100 EXP SWAP1 DIV PUSH20 0xFFFFFFFFFFFFFFFFFFFFFFFFFFFFFFFFFFFFFFFF AND PUSH20 0xFFFFFFFFFFFFFFFFFFFFFFFFFFFFFFFFFFFFFFFF AND CALLER PUSH20 0xFFFFFFFFFFFFFFFFFFFFFFFFFFFFFFFFFFFFFFFF AND EQ PUSH2 0x532 JUMPI PUSH1 0x40 MLOAD PUSH32 0x8C379A000000000000000000000000000000000000000000000000000000000 DUP2 MSTORE PUSH1 0x4 ADD PUSH2 0x529 SWAP1 PUSH2 0xA09 JUMP JUMPDEST PUSH1 0x40 MLOAD DUP1 SWAP2 SUB SWAP1 REVERT JUMPDEST PUSH0 PUSH20 0xFFFFFFFFFFFFFFFFFFFFFFFFFFFFFFFFFFFFFFFF AND DUP2 PUSH20 0xFFFFFFFFFFFFFFFFFFFFFFFFFFFFFFFFFFFFFFFF AND SUB PUSH2 0x5A0 JUMPI PUSH1 0x40 MLOAD PUSH32 0x8C379A000000000000000000000000000000000000000000000000000000000 DUP2 MSTORE PUSH1 0x4 ADD PUSH2 0x597 SWAP1 PUSH2 0xB82 JUMP JUMPDEST PUSH1 0x40 MLOAD DUP1 SWAP2 SUB SWAP1 REVERT JUMPDEST PUSH0 PUSH1 0x1 PUSH0 SWAP1 SLOAD SWAP1 PUSH2 0x100 EXP SWAP1 DIV PUSH20 0xFFFFFFFFFFFFFFFFFFFFFFFFFFFFFFFFFFFFFFFF AND SWAP1 POP DUP2 PUSH1 0x1 PUSH0 PUSH2 0x100 EXP DUP2 SLOAD DUP2 PUSH20 0xFFFFFFFFFFFFFFFFFFFFFFFFFFFFFFFFFFFFFFFF MUL NOT AND SWAP1 DUP4 PUSH20 0xFFFFFFFFFFFFFFFFFFFFFFFFFFFFFFFFFFFFFFFF AND MUL OR SWAP1 SSTORE POP DUP2 PUSH20 0xFFFFFFFFFFFFFFFFFFFFFFFFFFFFFFFFFFFFFFFF AND DUP2 PUSH20 0xFFFFFFFFFFFFFFFFFFFFFFFFFFFFFFFFFFFFFFFF AND PUSH32 0x4A9D367B1B0CD787BE10021F1C55CB49C9F2302334E6DF35C9621005EB222514 PUSH1 0x40 MLOAD PUSH1 0x40 MLOAD DUP1 SWAP2 SUB SWAP1 LOG3 POP POP JUMP JUMPDEST PUSH1 0x1 PUSH0 SWAP1 SLOAD SWAP1 PUSH2 0x100 EXP SWAP1 DIV PUSH20 0xFFFFFFFFFFFFFFFFFFFFFFFFFFFFFFFFFFFFFFFF AND PUSH20 0xFFFFFFFFFFFFFFFFFFFFFFFFFFFFFFFFFFFFFFFF AND CALLER PUSH20 0xFFFFFFFFFFFFFFFFFFFFFFFFFFFFFFFFFFFFFFFF AND EQ PUSH2 0x6F2 JUMPI PUSH1 0x40 MLOAD PUSH32 0x8C379A000000000000000000000000000000000000000000000000000000000 DUP2 MSTORE PUSH1 0x4 ADD PUSH2 0x6E9 SWAP1 PUSH2 0xBEA JUMP JUMPDEST PUSH1 0x40 MLOAD DUP1 SWAP2 SUB SWAP1 REVERT JUMPDEST PUSH4 0x1E13380 PUSH1 0x2 SLOAD PUSH2 0x704 SWAP2 SWAP1 PUSH2 0xC35 JUMP JUMPDEST TIMESTAMP GT PUSH2 0x745 JUMPI PUSH1 0x40 MLOAD PUSH32 0x8C379A000000000000000000000000000000000000000000000000000000000 DUP2 MSTORE PUSH1 0x4 ADD PUSH2 0x73C SWAP1 PUSH2 0xCB2 JUMP JUMPDEST PUSH1 0x40 MLOAD DUP1 SWAP2 SUB SWAP1 REVERT JUMPDEST PUSH0 SELFBALANCE SWAP1 POP PUSH0 DUP2 GT PUSH2 0x78B JUMPI PUSH1 0x40 MLOAD PUSH32 0x8C379A000000000000000000000000000000000000000000000000000000000 DUP2 MSTORE PUSH1 0x4 ADD PUSH2 0x782 SWAP1 PUSH2 0xD1A JUMP JUMPDEST PUSH1 0x40 MLOAD DUP1 SWAP2 SUB SWAP1 REVERT JUMPDEST PUSH0 PUSH1 0x1 PUSH0 SWAP1 SLOAD SWAP1 PUSH2 0x100 EXP SWAP1 DIV PUSH20 0xFFFFFFFFFFFFFFFFFFFFFFFFFFFFFFFFFFFFFFFF AND PUSH20 0xFFFFFFFFFFFFFFFFFFFFFFFFFFFFFFFFFFFFFFFF AND DUP3 PUSH1 0x40 MLOAD PUSH2 0x7D1 SWAP1 PUSH2 0xABC JUMP JUMPDEST PUSH0 PUSH1 0x40 MLOAD DUP1 DUP4 SUB DUP2 DUP6 DUP8 GAS CALL SWAP3 POP POP POP RETURNDATASIZE DUP1 PUSH0 DUP2 EQ PUSH2 0x80B JUMPI PUSH1 0x40 MLOAD SWAP2 POP PUSH1 0x1F NOT PUSH1 0x3F RETURNDATASIZE ADD AND DUP3 ADD PUSH1 0x40 MSTORE RETURNDATASIZE DUP3 MSTORE RETURNDATASIZE PUSH0 PUSH1 0x20 DUP5 ADD RETURNDATACOPY PUSH2 0x810 JUMP JUMPDEST PUSH1 0x60 SWAP2 POP JUMPDEST POP POP SWAP1 POP DUP1 PUSH2 0x854 JUMPI PUSH1 0x40 MLOAD PUSH32 0x8C379A000000000000000000000000000000000000000000000000000000000 DUP2 MSTORE PUSH1 0x4 ADD PUSH2 0x84B SWAP1 PUSH2 0xB1A JUMP JUMPDEST PUSH1 0x40 MLOAD DUP1 SWAP2 SUB SWAP1 REVERT JUMPDEST PUSH1 0x1 PUSH0 SWAP1 SLOAD SWAP1 PUSH2 0x100 EXP SWAP1 DIV PUSH20 0xFFFFFFFFFFFFFFFFFFFFFFFFFFFFFFFFFFFFFFFF AND PUSH20 0xFFFFFFFFFFFFFFFFFFFFFFFFFFFFFFFFFFFFFFFF AND PUSH32 0x1299BD5AF84E23C4C82C1D4EDDF2A9C00E70B8B886076D06CDBE7C6FC80A87D DUP4 PUSH1 0x40 MLOAD PUSH2 0x8BB SWAP2 SWAP1 PUSH2 0x996 JUMP JUMPDEST PUSH1 0x40 MLOAD DUP1 SWAP2 SUB SWAP1 LOG2 POP POP JUMP JUMPDEST PUSH1 0x2 SLOAD DUP2 JUMP JUMPDEST PUSH0 PUSH20 0xFFFFFFFFFFFFFFFFFFFFFFFFFFFFFFFFFFFFFFFF DUP3 AND SWAP1 POP SWAP2 SWAP1 POP JUMP JUMPDEST PUSH0 PUSH2 0x8F6 DUP3 PUSH2 0x8CD JUMP JUMPDEST SWAP1 POP SWAP2 SWAP1 POP JUMP JUMPDEST PUSH2 0x906 DUP2 PUSH2 0x8EC JUMP JUMPDEST DUP3 MSTORE POP POP JUMP JUMPDEST PUSH0 PUSH1 0x20 DUP3 ADD SWAP1 POP PUSH2 0x91F PUSH0 DUP4 ADD DUP5 PUSH2 0x8FD JUMP JUMPDEST SWAP3 SWAP2 POP POP JUMP JUMPDEST PUSH0 PUSH0 REVERT JUMPDEST PUSH2 0x932 DUP2 PUSH2 0x8EC JUMP JUMPDEST DUP2 EQ PUSH2 0x93C JUMPI PUSH0 PUSH0 REVERT JUMPDEST POP JUMP JUMPDEST PUSH0 DUP2 CALLDATALOAD SWAP1 POP PUSH2 0x94D DUP2 PUSH2 0x929 JUMP JUMPDEST SWAP3 SWAP2 POP POP JUMP JUMPDEST PUSH0 PUSH1 0x20 DUP3 DUP5 SUB SLT ISZERO PUSH2 0x968 JUMPI PUSH2 0x967 PUSH2 0x925 JUMP JUMPDEST JUMPDEST PUSH0 PUSH2 0x975 DUP5 DUP3 DUP6 ADD PUSH2 0x93F JUMP JUMPDEST SWAP2 POP POP SWAP3 SWAP2 POP POP JUMP JUMPDEST PUSH0 DUP2 SWAP1 POP SWAP2 SWAP1 POP JUMP JUMPDEST PUSH2 0x990 DUP2 PUSH2 0x97E JUMP JUMPDEST DUP3 MSTORE POP POP JUMP JUMPDEST PUSH0 PUSH1 0x20 DUP3 ADD SWAP1 POP PUSH2 0x9A9 PUSH0 DUP4 ADD DUP5 PUSH2 0x987 JUMP JUMPDEST SWAP3 SWAP2 POP POP JUMP JUMPDEST PUSH0 DUP3 DUP3 MSTORE PUSH1 0x20 DUP3 ADD SWAP1 POP SWAP3 SWAP2 POP POP JUMP JUMPDEST PUSH32 0x4E6F742074686520636F6E7472616374206F776E657200000000000000000000 PUSH0 DUP3 ADD MSTORE POP JUMP JUMPDEST PUSH0 PUSH2 0x9F3 PUSH1 0x16 DUP4 PUSH2 0x9AF JUMP JUMPDEST SWAP2 POP PUSH2 0x9FE DUP3 PUSH2 0x9BF JUMP JUMPDEST PUSH1 0x20 DUP3 ADD SWAP1 POP SWAP2 SWAP1 POP JUMP JUMPDEST PUSH0 PUSH1 0x20 DUP3 ADD SWAP1 POP DUP2 DUP2 SUB PUSH0 DUP4 ADD MSTORE PUSH2 0xA20 DUP2 PUSH2 0x9E7 JUMP JUMPDEST SWAP1 POP SWAP2 SWAP1 POP JUMP JUMPDEST PUSH32 0x4E6F2066756E647320746F207769746864726177000000000000000000000000 PUSH0 DUP3 ADD MSTORE POP JUMP JUMPDEST PUSH0 PUSH2 0xA5B PUSH1 0x14 DUP4 PUSH2 0x9AF JUMP JUMPDEST SWAP2 POP PUSH2 0xA66 DUP3 PUSH2 0xA27 JUMP JUMPDEST PUSH1 0x20 DUP3 ADD SWAP1 POP SWAP2 SWAP1 POP JUMP JUMPDEST PUSH0 PUSH1 0x20 DUP3 ADD SWAP1 POP DUP2 DUP2 SUB PUSH0 DUP4 ADD MSTORE PUSH2 0xA88 DUP2 PUSH2 0xA4F JUMP JUMPDEST SWAP1 POP SWAP2 SWAP1 POP JUMP JUMPDEST PUSH0 DUP2 SWAP1 POP SWAP3 SWAP2 POP POP JUMP JUMPDEST POP JUMP JUMPDEST PUSH0 PUSH2 0xAA7 PUSH0 DUP4 PUSH2 0xA8F JUMP JUMPDEST SWAP2 POP PUSH2 0xAB2 DUP3 PUSH2 0xA99 JUMP JUMPDEST PUSH0 DUP3 ADD SWAP1 POP SWAP2 SWAP1 POP JUMP JUMPDEST PUSH0 PUSH2 0xAC6 DUP3 PUSH2 0xA9C JUMP JUMPDEST SWAP2 POP DUP2 SWAP1 POP SWAP2 SWAP1 POP JUMP JUMPDEST PUSH32 0x5472616E73666572206661696C65640000000000000000000000000000000000 PUSH0 DUP3 ADD MSTORE POP JUMP JUMPDEST PUSH0 PUSH2 0xB04 PUSH1 0xF DUP4 PUSH2 0x9AF JUMP JUMPDEST SWAP2 POP PUSH2 0xB0F DUP3 PUSH2 0xAD0 JUMP JUMPDEST PUSH1 0x20 DUP3 ADD SWAP1 POP SWAP2 SWAP1 POP JUMP JUMPDEST PUSH0 PUSH1 0x20 DUP3 ADD SWAP1 POP DUP2 DUP2 SUB PUSH0 DUP4 ADD MSTORE PUSH2 0xB31 DUP2 PUSH2 0xAF8 JUMP JUMPDEST SWAP1 POP SWAP2 SWAP1 POP JUMP JUMPDEST PUSH32 0x496E76616C696420726563697069656E74206164647265737300000000000000 PUSH0 DUP3 ADD MSTORE POP JUMP JUMPDEST PUSH0 PUSH2 0xB6C PUSH1 0x19 DUP4 PUSH2 0x9AF JUMP JUMPDEST SWAP2 POP PUSH2 0xB77 DUP3 PUSH2 0xB38 JUMP JUMPDEST PUSH1 0x20 DUP3 ADD SWAP1 POP SWAP2 SWAP1 POP JUMP JUMPDEST PUSH0 PUSH1 0x20 DUP3 ADD SWAP1 POP DUP2 DUP2 SUB PUSH0 DUP4 ADD MSTORE PUSH2 0xB99 DUP2 PUSH2 0xB60 JUMP JUMPDEST SWAP1 POP SWAP2 SWAP1 POP JUMP JUMPDEST PUSH32 0x4F6E6C7920726563697069656E742063616E20647261696E0000000000000000 PUSH0 DUP3 ADD MSTORE POP JUMP JUMPDEST PUSH0 PUSH2 0xBD4 PUSH1 0x18 DUP4 PUSH2 0x9AF JUMP JUMPDEST SWAP2 POP PUSH2 0xBDF DUP3 PUSH2 0xBA0 JUMP JUMPDEST PUSH1 0x20 DUP3 ADD SWAP1 POP SWAP2 SWAP1 POP JUMP JUMPDEST PUSH0 PUSH1 0x20 DUP3 ADD SWAP1 POP DUP2 DUP2 SUB PUSH0 DUP4 ADD MSTORE PUSH2 0xC01 DUP2 PUSH2 0xBC8 JUMP JUMPDEST SWAP1 POP SWAP2 SWAP1 POP JUMP JUMPDEST PUSH32 0x4E487B7100000000000000000000000000000000000000000000000000000000 PUSH0 MSTORE PUSH1 0x11 PUSH1 0x4 MSTORE PUSH1 0x24 PUSH0 REVERT JUMPDEST PUSH0 PUSH2 0xC3F DUP3 PUSH2 0x97E JUMP JUMPDEST SWAP2 POP PUSH2 0xC4A DUP4 PUSH2 0x97E JUMP JUMPDEST SWAP3 POP DUP3 DUP3 ADD SWAP1 POP DUP1 DUP3 GT ISZERO PUSH2 0xC62 JUMPI PUSH2 0xC61 PUSH2 0xC08 JUMP JUMPDEST JUMPDEST SWAP3 SWAP2 POP POP JUMP JUMPDEST PUSH32 0x4F776E6572206973207374696C6C206163746976650000000000000000000000 PUSH0 DUP3 ADD MSTORE POP JUMP JUMPDEST PUSH0 PUSH2 0xC9C PUSH1 0x15 DUP4 PUSH2 0x9AF JUMP JUMPDEST SWAP2 POP PUSH2 0xCA7 DUP3 PUSH2 0xC68 JUMP JUMPDEST PUSH1 0x20 DUP3 ADD SWAP1 POP SWAP2 SWAP1 POP JUMP JUMPDEST PUSH0 PUSH1 0x20 DUP3 ADD SWAP1 POP DUP2 DUP2 SUB PUSH0 DUP4 ADD MSTORE PUSH2 0xCC9 DUP2 PUSH2 0xC90 JUMP JUMPDEST SWAP1 POP SWAP2 SWAP1 POP JUMP JUMPDEST PUSH32 0x4E6F2066756E647320746F20647261696E000000000000000000000000000000 PUSH0 DUP3 ADD MSTORE POP JUMP JUMPDEST PUSH0 PUSH2 0xD04 PUSH1 0x11 DUP4 PUSH2 0x9AF JUMP JUMPDEST SWAP2 POP PUSH2 0xD0F DUP3 PUSH2 0xCD0 JUMP JUMPDEST PUSH1 0x20 DUP3 ADD SWAP1 POP SWAP2 SWAP1 POP JUMP JUMPDEST PUSH0 PUSH1 0x20 DUP3 ADD SWAP1 POP DUP2 DUP2 SUB PUSH0 DUP4 ADD MSTORE PUSH2 0xD31 DUP2 PUSH2 0xCF8 JUMP JUMPDEST SWAP1 POP SWAP2 SWAP1 POP JUMP INVALID LOG2 PUSH5 0x6970667358 0x22 SLT KECCAK256 PUSH2 0x9B09 MCOPY STATICCALL 0xE8 JUMP PUSH29 0x8544F33E7C8E3AA9FA574556C81A22913769A58F2390356B64736F6C63 NUMBER STOP ADDMOD SHR STOP CALLER LOG2 PUSH5 0x6970667358 0x22 SLT KECCAK256 SWAP4 CALL 0xD7 0xB1 GASPRICE GASLIMIT COINBASE 0xB8 0xE4 PUSH19 0xA1AB0E6B996961E9EAB128D83CA7B060C986BD 0xF9 XOR SWAP7 PUSH5 0x736F6C6343 STOP ADDMOD SHR STOP CALLER "},"gasEstimates":{"creation":{"codeDepositCost":"1112600","executionCost":"1152","totalCost":"1113752"},"external":{"createWillContract(address)":"infinite","deployedContracts(uint256)":"4943","getTotalDeployedContracts()":"2461","getUserContracts(address)":"infinite","userContracts(address,uint256)":"infinite"}},"methodIdentifiers":{"createWillContract(address)":"faf6b3b3","deployedContracts(uint256)":"9ad1ee10","getTotalDeployedContracts()":"b0199c18","getUserContracts(address)":"34c925f0","userContracts(address,uint256)":"b789003d"}},"storageLayout":{"storage":[{"astId":4,"contract":"WillContract.sol:WillContractFactory","label":"deployedContracts","offset":0,"slot":"0","type":"t_array(t_address)dyn_storage"},{"astId":9,"contract":"WillContract.sol:WillContractFactory","label":"userContracts","offset":0,"slot":"1","type":"t_mapping(t_address,t_array(t_address)dyn_storage)"}],"types":{"t_address":{"encoding":"inplace","label":"address","numberOfBytes":"20"},"t_array(t_address)dyn_storage":{"base":"t_address","encoding":"dynamic_array","label":"address[]","numberOfBytes":"32"},"t_mapping(t_address,t_array(t_address)dyn_storage)":{"encoding":"mapping","key":"t_address","label":"mapping(address => address[])","numberOfBytes":"32","value":"t_array(t_address)dyn_storage"}}},"transientStorageLayout":{"storage":[],"types":null},"userdoc":{"kind":"user","methods":{},"version":1}}